:020000040000FA
:10000000700C0020D91500003B49000009160000C3
:100010000916000009160000091600000916000064
:10002000000000000000000000000000E9130000D4
:100030000916000000000000911300002148000094
:1000400099150000991500009915000099150000F8
:1000500099150000991500009915000099150000E8
:1000600099150000991500009915000099150000D8
:1000700099150000991500009915000099150000C8
:1000800099150000991500009915000099150000B8
:1000900099150000991500009915000099150000A8
:1000A0009915000099150000991500009915000098
:1000B0009915000099150000991500009915000088
:1000C0009915000099150000991500009915000078
:1000D0009915000099150000991500009915000068
:1000E0009915000099150000991500009915000058
:1000F0009915000099150000991500009915000048
:100100009915000099150000991500009915000037
:100110009915000099150000991500009915000027
:100120009915000099150000991500009915000017
:100130009915000099150000991500009915000007
:100140009915000000000000000000000000000001
:10015000000000000000000000000000000000009F
:10016000000000000000000000000000000000008F
:10017000000000000000000000000000000000007F
:10018000000000000000000000000000000000006F
:10019000000000000000000000000000000000005F
:1001A000000000000000000000000000000000004F
:1001B000000000000000000000000000000000003F
:1001C000000000000000000000000000000000002F
:1001D000000000000000000000000000000000001F
:1001E000000000000000000000000000000000000F
:1001F00000000000000000000000000000000000FF
:10020000DEE61E284CBBCE8F025B00003C000000E7
:10021000008000000100000000000000000000005D
:10022000FFFF02910000000000000000000000003D
:1002300000000000000000000000000053B94AB9AF
:10024000002908BF00281CBF4FF0FF314FF0FF30DE
:1002500000F070B9ADF1080C6DE904CE00F006F8BD
:10026000DDF804E0DDE9022304B070472DE9F04F2A
:10027000099E04468946002B40F083808A42154639
:1002800045D9B2FA82F24AB1C2F1200701FA02F36B
:100290009540944020FA07F747EA03094FEA154EC4
:1002A000230C1FFA85F8B9FBFEFC0EFB1C990CFB16
:1002B00008F143EA094399420AD9EB182CBF0120FF
:1002C0000020994202D9002800F01D810CF1FF3C6A
:1002D000591AA3B2B1FBFEF00EFB101100FB08F897
:1002E00043EA0144A04505D92C1902D2A04500F2E9
:1002F0000E810138A4EB080440EA0C4000271EB12F
:10030000D4400023C6E900433946BDE8F08F002AF7
:1003100051D0B2FA82F2002A40F0AF80491B4FEA76
:10032000154E1FFA85F80127230CB1FBFEFC0EFBCE
:100330001C1108FB0CF043EA014398420AD9EB1860
:100340002CBF01210021984202D9002900F0D7805A
:100350000CF1FF3C191AA3B2B1FBFEF00EFB101119
:1003600008FB00F843EA0144A04505D92C1902D244
:10037000A04500F2C1800138A4EB080440EA0C401B
:10038000BDE78B4208D9002E74D00027C6E90001D2
:1003900038463946BDE8F08FB3FA83F767B98B4228
:1003A000C0F0A480824240F2A1803846002EABD03B
:1003B000C6E90049A8E7FFDEC7F12005BB4002FA05
:1003C00007FC01FA07F4EA4020FA05F8E94000FAD0
:1003D00007FE1A4348EA04044FEA1248200C1FFAA9
:1003E00082F9B1FBF8FA08FB1A110AFB09FB40EA93
:1003F00001418B450AD951182CBF012300238B459D
:1004000002D9002B00F088800AF1FF3AA1EB0B0122
:10041000A4B2B1FBF8F008FB101100FB09F944EAA3
:100420000141894504D9511801D289457BD8013849
:1004300040EA0A40A1EB0901A0FB0C89494544466A
:100440004B4602D306D1C64504D20138B8EB0C04A2
:1004500069EB0203002E5DD0BEEB040261EB0301E9
:1004600001FA05F522FA07F3F94000271D43C6E912
:10047000005149E73746304646E7C2F12000954033
:1004800001FA02F721FA00F34FEA154E24FA00F1BF
:100490001FFA85F894403943B3FBFEF00F0C0EFBB6
:1004A000103300FB08FC47EA03439C4507D9EB18CF
:1004B0002CBF012700279C4500D98FB30138A3EB3F
:1004C0000C0389B2B3FBFEF70EFB173307FB08FCE6
:1004D00041EA03418C4504D9691801D28C4525D8DD
:1004E000013FA1EB0C0147EA00471DE7841A61EBCD
:1004F00003030120994659E702382C443CE7ACF14C
:10050000020C2B4426E7ACF1020C2B44E0E6023847
:100510002C44EFE63746F7E6AAF1020A114475E7E4
:1005200002382B44CBE70238114481E7023F2944CB
:10053000D7E700BF704700BF2DE9E04F2746A04630
:10054000A146A246A346A4462DED108B4FF0000510
:1005500045EC185B45EC195A45EC1A5A45EC1B5A08
:1005600045EC1C5A45EC1D5A45EC1E5A45EC1F5AE9
:10057000F1EE105A4FF66076C0F6FF763540E1EEA8
:10058000105A84F3008825462646A447BDEC108BFC
:10059000BDE8E08F0B6801330B60014B1B68184707
:1005A000000000202DE9F04F87B00F461946109B40
:1005B00006461425104698469DF844B09DF848A07C
:1005C0001C4C4FEAE37950EA01031AD1142D08BFFD
:1005D0003023139C18BF01352C4408BF8DF814300C
:1005E000152C17D0153C002C16DC1DF805003946DB
:1005F0000135B047152DF8D1002C15DC07B0BDE84A
:10060000F08F42464B46FFF719FEA35C0DF805300C
:10061000013DD8E70024E8E7BBF1000FE5D03946FB
:100620005046B047013CDEE739465046B047013CF2
:10063000E2E700BF74530000014B1860704700BF31
:1006400000000020002307B50246019303480B4633
:1006500001A903F098FD03B05DF804FB95050000C7
:100660002DE9F84FB0F81890044619F008080DD09D
:1006700001290CBF49F0100949F02009A0F8189091
:1006800082F31188BFF36F8FBDE8F88F09F0070977
:10069000022907D1204603F097FE0028F0D0012858
:1006A000238B4AD16769238B002F15DA2568C4E9AB
:1006B000008823F0070343F0010323830026238BE4
:1006C00003F0070ACA4502D0A168002956D10DB926
:1006D000002E6DD0002152E003F00701481F0128D1
:1006E0001CD823F00703062925689BB2C4E90088BB
:1006F0000AD13DB12846618B0068013189B20028DA
:10070000FAD1618343F002032383204603F05CFEA9
:100710000028D3D0238B43F02003CEE704290AD14D
:1007200023F0070399B22183204603F04DFE10B158
:1007300041F0200121830025C0E7032809D1216968
:1007400023F007030E6843F00603002523832F469A
:10075000B5E7042806D1216923F007034E6843F06A
:100760000403F2E7052806D1216923F007038E6808
:1007700043F00503E9E700252E46E8E7012143F0B1
:100780000803238382F31188BFF36F8FF9B985BB08
:1007900016B121492046B0474FF02003EFF31182F4
:1007A00083F31188BFF36F8F238B23F00803238318
:1007B000238BD90627D5012123F010032383B4F816
:1007C000189009F0070900297FF462AF58E7A16883
:1007D0000029DCD0D1F80090D1F804B03B46524655
:1007E0002046D847B9F1000FD1D04946D9F800903A
:1007F000F2E7D5F8009029463B465246204603F0E2
:10080000FFFD4D46C3E713F020011EBF23F0200378
:1008100023830221D3E700BF2D4400004FF02002C4
:10082000EFF3118382F31188BFF36F8F0121044A24
:10083000C2F8401583F31188BFF36F8F0020704713
:100840000090035020B1034B800143F0010318478F
:10085000704700BFD050000008B504464FF020029A
:10086000EFF3118382F31188BFF36F8F03F0DAFF88
:10087000204600F0E7FF034803F099FD00F03AFE40
:10088000FCE700BF8553000010B5074801F04CFDA0
:10089000064C074B1860204601F006FA2046FFF789
:1008A000CBFE002010BD00BFAE530000B508000015
:1008B000680200200A2838B50446074D04D128688C
:1008C00083680D215B68984728688368E1B25B689C
:1008D0009847204638BD00BF680200200E4A70B518
:1008E000841A05460C200E464021A3100B4C5C4395
:1008F000E4B200FB0420084403F003FF011E05DB03
:10090000074B03EBC404636898470021284633462D
:10091000BDE87040184700BF7C020020B76DDBB611
:10092000EC5000002DE9F0410C25104E8046841B50
:10093000A3100F4C0F465C43E4B2654305F1400041
:100940004021304403F0F6FE011E09DB094A731909
:10095000C3E90E27084B53F83430BDE8F04118477F
:1009600040463B46BDE8F041184700BF7C020020EE
:10097000B76DDBB697470000EC50000070B5002261
:1009800001210446052000F05DFD052000F03CFD3E
:100990000F4801F0D3FB0F4B984215D104F0F5F846
:1009A000E6680D49304603F05FFD00280BDB0125AA
:1009B0003564E468084904F11C0003F055FD002883
:1009C00001DB0020E56470BD6FF00400FBE700BFB1
:1009D000750A00000000AD0BFC50000001460C231E
:1009E00000224B43084870B5C4184033D4E90E5672
:1009F0001844A26303F0BCFE2DB132462B46BDE87D
:100A000070400248184770BD7C020020BC000020E6
:100A100008B54FF02003EFF3118183F31188BFF382
:100A20006F8F124A136843F0020013F00103106045
:100A30000CD04FF05022D2F80C34D2F80C2413F022
:100A4000010303D00A4803F093FE012381F31188C8
:100A5000BFF36F8F23B1BDE808400020FFF7BEBF92
:100A60000120BDE8084001F079BB00BFCC020020A6
:100A7000BC02002010B1012804D07047034B1B6C4E
:100A80005B0701D1FFF7AABF704700BF7C020020BF
:100A9000074BD3E8EF2F22F00201C3E8E01F002844
:100AA000F7D1D30702D4012001F08ABB704700BF01
:100AB000CC0200200023012210B588B0CDE9063217
:100AC0000193094B04AC01AACDE90444CDE90234F9
:100AD00003F088FE002805DB4FF480420023204607
:100AE00002F0EAF908B010BDAB4700002DE9F84369
:100AF000012205463849D1E8EF3FC1E8E02F002840
:100B0000F9D133B9354936484B60CB608A6003F080
:100B1000BEFC6B1E012B30D8012D07D14FF05023A6
:100B2000D3F81C3403F00303022B26D004F01DF984
:100B300018B92C4B1B78002B46D14FF02003EFF354
:100B4000118983F31188BFF36F8F0124264E274F3D
:100B5000DFF89C804FF05022D2F81834D2F81824D5
:100B6000D2030CD503F00303022B01D0012D06D1D3
:100B700024B389F31188BFF36F8FBDE8F883C4B144
:100B8000484600F0C5FC4FF05022D2F81835DBB2D1
:100B9000012BDFD131680029DCD0002131603168C0
:100BA0000221C2F818152022C7F88021C8F80030A9
:100BB000D0E70021212002F039F9E4E74FF050237B
:100BC0000222C3F80423D8E74FF050230222044640
:100BD000C3F808238146B9E7D00200206C02002048
:100BE000980200206D0800200451005000E100E050
:100BF00008500050821C084B22F07F42C3F8402569
:100C0000D3F80425904200D17047D3F80405821C24
:100C100022F07F42F2E700BF005001500022074B54
:100C20001A601B68064A074BD3F840051368C01AC0
:100C300020F07F400344136002F0CABA40510150D3
:100C4000D40200200050015038B500244FF40012A7
:100C50000E4D0F4BC5F808451C601B680D4B01215C
:100C6000C3F880214FF480332246C5F804331520A1
:100C700000F0E8FB152000F0C7FB0123064A022024
:100C800013602B60FFF732FF204638BD0050015043
:100C90004051015000E100E008500150F8B52D4BE3
:100CA0002D4CD3F804252D4BB0F1FF3F08BF204653
:100CB0001968521A22F07F43120238D4013820EA10
:100CC000E070A042A8BF204601331844A04294BF60
:100CD0000C180C194FF4803000261E4A204DC2F823
:100CE0000803D2F80415D2F840352E605B1A23F0C1
:100CF0007F432F68012B21F07F47C2F84075C2F86F
:100D0000440304D10F2004F036F82E602B684FF412
:100D10000012144BC3F880210E4BD3F80405221A9D
:100D200022F07F42012A04D1FFF764FF0BE000208C
:100D3000CAE724F07F42C3F84025D3F80405241AFB
:100D4000023C2302F0D44FF48032024BC3F8042358
:100D5000F8BD00BF00500150FFFF7F00D40200200B
:100D60004051015000E100E04FF02002EFF3118309
:100D700082F31188BFF36F8F064AD2F80405064A42
:100D80001268801A20F07F4083F31188BFF36F8FC1
:100D9000704700BF00500150D4020020F7B5002872
:100DA0001C460D4614BF4FF400534FF40043204E31
:100DB000954232D302FB03F0013A00904B431D48A9
:100DC00003F0F5FA1C4B14F0100F1C491C4808BF27
:100DD000194603F0ECFA14F0040F14BF72212D2110
:100DE000184803F0E4FA14F0020F14BF77212D2104
:100DF000144803F0DCFA14F0010F0CBF2D21782108
:100E0000104803F0D4FA6C210E4803F0D0FA0E48D3
:100E100003B0BDE8F04003F0CABA28B105F5E077A9
:100E200046F827400135C3E705F5C077F8E700BF6E
:100E300000300050D4530000C8530000BF530000DE
:100E4000DE540000EE5300002957000008B543B2FD
:100E5000002B0CDB012200F01F018A405B091049C6
:100E6000203341F82320BFF34F8FBFF36F8F8300F0
:100E700003F1A04303F540533128D3F8002806D0EE
:100E8000002A07DA02F00302023A012A02D8054AD0
:100E9000C3F80028012103F018FD002008BD00BFA1
:100EA00000E100E00001008030B54FF440444CF216
:100EB000040585B04FF440412C4803F078FA2168CE
:100EC0002B4803F074FA29682A4803F070FA1022BC
:100ED0000021684603F0C0FD236868460093029431
:100EE00000F06CFE012000F099FE002000F082FE70
:100EF000002000F0A7FE0121002000F0C1FE00F05C
:100F0000B5FE2C681C4803F052FA0820FFF79EFF3C
:100F100024F00104BFF34F8FBFF36F8F64086400A8
:100F20002046214622462346B7EE000AF7EE000A85
:100F3000B7EE001AF7EE001AB7EE002AF7EE002A15
:100F4000B7EE003AF7EE003AB7EE004AF7EE004A85
:100F5000B7EE005AF7EE005AB7EE006AF7EE006AF5
:100F6000B7EE007AF7EE007AFFF7E6FAF5540000E4
:100F70000C550000215500003F5500002DE9F843B5
:100F80003B4803F014FA002140F2171308460122EF
:100F9000FFF704FF40F20713202201210020FFF792
:100FA000FDFE344803F003FA334B344AC3F3C43133
:100FB000C3F30E03C3F50043C3F34313C2F8001594
:100FC000C2F80435D2F80015D2F804252C48520195
:100FD00003F0EDF9274803F0EAF903F024FC014699
:100FE00010B1284803F0E3F90024274803F0DFF9A3
:100FF00040F21713082200210120FFF7CFFE1F4DFA
:1010000040F20713202208210120FFF7C7FE1948EC
:1010100003F0CDF9C5F880441C4803F0C8F91C4F13
:10102000C5F8C044DFF87C801A4DDFF87C906E79FB
:101030002A68002E14BF3B4643462146484603F02B
:10104000B6F966B91448013403F0B1F91A2C05F168
:101050000805ECD10748BDE8F84303F0A8B92879A2
:10106000FFF7F4FE08B10D48EDE70D48EBE700BFD0
:10107000FC53000029570000E07F000000300050C2
:10108000205400006654000096540000B85400003C
:10109000F153000008510000E1540000E854000042
:1010A000F0540000CC530000D454000010B50028C8
:1010B0004BD0002A49D0264B99423CD9541803F60C
:1010C0001D239C423AD803F09DFC0020BDE810404F
:1010D000714672467346B7EE000AF7EE000AB7EEA5
:1010E000001AF7EE001AB7EE002AF7EE002AB7EE64
:1010F000003AF7EE003AB7EE004AF7EE004AB7EED4
:10110000005AF7EE005AB7EE006AF7EE006AB7EE43
:10111000007AF7EE007A8EF3008C10B4F1EE10CA6C
:101120004FF66074C0F6FF740CEA040CE1EE10CACE
:1011300010BCF4467447074B994203D9064B541828
:101140009C42C0D94FF0FF30C0E76FF01500BDE7FB
:101150000302FF002F01FF003801FF002DE9F04FCF
:10116000834685B08946002951D00027DFF8B0A01A
:10117000DFF8B08001AE5AF8044B98E807005C44F1
:1011800086E807000C223146204603F014FC054691
:1011900008B9002C3ED10137052FECD16FF00D05B9
:1011A000284605B0B7EE000AF7EE000AB7EE001ABF
:1011B000F7EE001AB7EE002AF7EE002AB7EE003A73
:1011C000F7EE003AB7EE004AF7EE004AB7EE005AE3
:1011D000F7EE005AB7EE006AF7EE006AB7EE007A53
:1011E000BDE8F04F714672467346F7EE007A8EF313
:1011F000008C10B4F1EE10CA4FF66074C0F6FF74A4
:101200000CEA040CE1EE10CA10BCF44674476FF00F
:101210001505C5E73C222146484603F0F3FBBFE72E
:10122000D851000080500000014802F071BA00BFA0
:10123000EC51000008B530B143683BB1006801F0E3
:1012400079FA002008BD6FF4E040FBE70048F9E7B9
:10125000EA8FFFFF10B5044618B90B4B0B485B68CB
:101260009847616859B111F00201206808D0014621
:10127000074801F0BDF9002323600023636010BD1F
:10128000142203F0E9FBF8E7700000206656000026
:10129000D802002010B5044618B9144B14485B68F6
:1012A00098476368CBB92368BBB94FF0FF324FF062
:1012B000FF3321460F4801F069F908B923681BB9CB
:1012C0000A4B0D485B68984714220021206803F000
:1012D000C3FB636843F002036360206803F098FC7B
:1012E000636843F00103636010BD00BF700000201D
:1012F00066560000D80200208C56000008B568B180
:10130000436873B100684FF0FF334FF0FF3201F0D4
:1013100099F9054B002818BF184608BD6FF4E04046
:10132000FBE70248F9E700BFE98FFFFFEA8FFFFF05
:1013300008B5064940231422054803F04EFCBDE8D9
:1013400008400449044802F035BA00BFF402002006
:10135000D802002004520000F4510000094A0A4952
:10136000936809689867D96708494B6843F08053C8
:101370004B60002383F31188BFF36F8F9368D86F9E
:10138000704700BF100800207852000000ED00E018
:1013900013498A684FF038001044EFF3098C80E855
:1013A000F01F202080F31188BFF36F8F0D4F4FF097
:1013B00000664A6A8A603E60906F0023936780F3FC
:1013C000118802F1380090E8F01F8CF3098802F1CF
:1013D000000004B503F0A7FABDE804407047000020
:1013E0001008002004ED00E01EF0040F0CBFEFF326
:1013F0000880EFF30980816911F8021C0229FFD0EF
:1014000001B503F096FA01BD43B2002B08DB0122BF
:1014100000F01F0002FA00F0024A5B0942F82300C4
:10142000704700BF00E100E0054B420953F822205D
:10143000012300F01F0003FA00F01040704700BFC6
:1014400000E100E043B2002B01F10101A8BF03F16C
:1014500060434FEA4111B8BF054BC9B2ABBF03F5BA
:10146000614300F00F0083F800131954704700BF68
:1014700014ED00E042F8203C009B0B4942F81C3C74
:10148000019B21F0010142F8183C029B42F8081C24
:1014900042F8143C4FF0807342F8043C0023203A99
:1014A00082658367704700BF2145000008B5044688
:1014B0000E4615460023E1EE103A00F00DFA094BF6
:1014C0009C60A36E83F30B88284686F3098800216D
:1014D00063B681F31188BFF36F8F0022002303F0FE
:1014E0001FF800BF10080020014910220A60704751
:1014F00010ED00E072B6404080F31188BFF36F8FAB
:10150000BFF34F8F30BF62B6BFF36F8F704700BF1E
:1015100072B6494081F3118820BF80F3118862B60A
:10152000704700BF30BFFFF7FDBF00BF174A08B5C7
:10153000174B22F07F029A60BFF34F8FBFF36F8F7C
:10154000D3F8882022F47002C3F88820D3F88820CA
:1015500042F4A002C3F888200E4A536823F04043A7
:101560005360BFF34F8FBFF36F8F0023E1EE103A4C
:10157000EFF3148323F0040383F3148800F016FFC1
:1015800000F01EFF00F070F900F058FF00000000AE
:1015900000ED00E030EF00E001B572B60B4A106AD2
:1015A00000281EBF0021116203F015FB62B6EFF3A5
:1015B0000580A0F110004FEAC0000549014409C9A7
:1015C0009847BDE801400349084700001008002083
:1015D000784E00002918000003F088F8202080F3DE
:1015E000118808484FF40061401880F30988EFF330
:1015F00014800221084380F31488BFF36F8FFFF734
:1016000095FF0000B00D0020EFF30880EFF3098193
:1016100001B5724600F070F801BD00BF0C4B9A6A2C
:101620009A6A9A6A920708D55A6B9A6A120604D582
:1016300018B19A6A22F080029A620020044B9A6ADA
:101640009A6A9A6A9A6A42F0FF029A620870704730
:1016500000ED00E00D4B9A6A9A6A9A6A920508D5E5
:101660009A6B9A6A120404D518B19A6A22F400425D
:101670009A620020054B9A6A9A6AD20558BF9A6A04
:101680009A6A42F47F429A620870704700ED00E067
:10169000094B9A6A9A6A986A9A6A9A6A9A6A9A6ADC
:1016A0009A6A10F480106FEA02426FEA124218BF81
:1016B00002209A62704700BF00ED00E00D4B9A696E
:1016C0005A695A69D0070FD45A6991070CD45A69DC
:1016D000520709D45A69100706D45A69D10603D4AF
:1016E0005A69920658BF5A695A6942F0FF025A6114
:1016F000704700BFD0ED00E0F0B5414B8BB05B68A8
:101700000025C3F3080385F31188BFF36F8F02F040
:101710007F44B4F17F4F1ED112F001041AD0560657
:1017200002F0080467D482F00402C2F3800564B1B9
:10173000EFF389860022033B8DF80720042B4BD85A
:10174000DFE803F00B4C50414800EFF38886F1E7E7
:101750000E46EFE725462E46ECE7294BDA6A92075C
:101760003AD4DC6A14F0804408D028331B78EBB1FB
:1017700001200DF10701FFF751FF04469DF80730E6
:1017800093B92022314602A803F03CF9099B6DB3BE
:10179000C3F3080222B96FEA53236FEA4323099384
:1017A00002A9204603F0C3F80BB0F0BD154B1B781F
:1017B0002BB101200DF10701FFF74CFFDDE7124BC4
:1017C0001F88BFB217B1FFF763FFD6E70F4B5C6905
:1017D000002CD3D0FFF772FF0024CFE70DF10701F3
:1017E0000020C8E70DF107010020E5E723F4FF73AF
:1017F00023F00103D3E7002CAAD10646012599E77F
:1018000000ED00E029ED00E02AED00E0D0ED00E081
:10181000044B5A6942F010025A615A6942F48062DC
:101820005A61704700ED00E0044B9968586A88429D
:1018300003D003494FF080520A607047100800201F
:1018400004ED00E0BFF34F8F0549064BCA6802F470
:10185000E0621343CB60BFF34F8F00BFFDE700BFD3
:1018600000ED00E00400FA05002320210348C2181F
:101870000133412B82F80013F9D1704700E100E0F9
:1018800010B5044601F056F9114B9B68A34207D1ED
:10189000EFF3058383B10F4A536843F080535360DD
:1018A0004FF02003EFF3118083F31188BFF36F8FA4
:1018B000BDE8104003F0B3B94FF02003EFF31180FF
:1018C00083F31188BFF36F8FFFF748FDE8E700BF90
:1018D0001008002000ED00E010B50E4B88B0029318
:1018E0000D4B0E4C03930E4B0E4A049302AB019327
:1018F00001A82346012100F003F9002307930A4BB6
:101900000121E41A05A80593069400F003F908B034
:1019100010BD00BF000000200000000000000120FA
:1019200006000100000000206001002010B50B68D7
:101930000C7A23F01F0204F01F031A43CB686409DA
:1019400023F01F03044943EA440343F00103886082
:10195000CA600B6110BD00BF90ED00E02DE9F04FB3
:101960008046894614460027484D85B04F4507DA22
:1019700058F827305E68C6B31F2E05D86FF01504DF
:10198000204605B0BDE8F08FF206F7D1D3F800A0ED
:101990001AF01F0FF2D1504602F0F8FF834606EB13
:1019A0000A00013802F0F2FF8345E7D11BF1160F60
:1019B000E4D0631E5B45E1DBC5F808B0E86858F881
:1019C0002710C5F808B02E6920F01F00D1E90032B9
:1019D0001A44984246F01F0602F1FF3A18D15645C4
:1019E00005D15FFA8BF002F0AFFF0137BEE7C5F813
:1019F00008B0EB6822F01F0203F01F031A43EA60ED
:101A0000E0B202F0A1FF10F1160FB7D0441CECE7D2
:101A1000C5F808B02A69013B23F01F0302F01F023A
:101A200013435645E0B22B61EBD002F08DFF10F16D
:101A3000160FA3D0C5F808B0EA689DF80830013E3B
:101A400062F304038DF808302B699DF808205B08C9
:101A500063F347128DF8082058F827200130D2E9A7
:101A600000321344009323F01F031E44A6EB0A0622
:101A7000C4B226F01F060F2C03963FF67FAF204618
:101A80006946FFF753FF0134AFE700BF90ED00E078
:101A90000522034B5A60BFF34F8FBFF36F8F704720
:101AA00090ED00E0BFF35F8F0022014B5A6070475A
:101AB00090ED00E070B50E4D2E68102E15D8002464
:101AC000FFF7F0FF0B4B0C4A1A63A64205D10B4BF4
:101AD0001E70FFF7DDFF002070BD6968204601EB36
:101AE0000411FFF723FF0134EFE74FF0FF30F3E776
:101AF0001852000090ED00E0AAFF44006C0800209E
:101B000010B5034C2278FFF729FF207010BD00BFED
:101B10006C0800202DE9F74F254C8A4680460027A7
:101B2000A1464FF0140B234D57451ADAD8F804306C
:101B30000193002B36D0D8F800100846009102F02F
:101B400025FFDDE9001306465818013802F01EFF94
:101B50008642194A08D014235F436FF0150349F8F1
:101B6000073003B0BDE8F08F16F1160F2660F8D0ED
:101B70001378B342F5DD0BFB0793AE60AE60E86807
:101B8000197B60F3040119732969187B490861F313
:101B900047101873EB6823F01F0363602B6923F071
:101BA0001F0323610137143408F10C08BCE700BFA0
:101BB000F407002090ED00E06C08002082680C4BD8
:101BC0009A60036883F38888436883F38988027B7B
:101BD00002F00101EFF3948323F00303920748BF5F
:101BE00043F0020309B143F0010383F39488704783
:101BF00000ED02E0084AD36848B123F400531B0407
:101C00001B0C43F0BF6343F40033D36070479BB2B7
:101C100043F40053F5E700BF00ED00E0084AD36845
:101C200040B19BB243F4804343F0BF6343F40033BD
:101C3000D360704723F480431B041B0CF4E700BF00
:101C400000ED00E0084AD36840B19BB243F00803BE
:101C500043F0BF6343F40033D360704723F00803BD
:101C60001B041B0CF4E700BF00ED00E0034AD2F8B0
:101C70008C3043F44063C2F88C30704700ED00E0D4
:101C8000084B1A6818B142F001021A60704722F03E
:101C900001021A601A6811B142F00202F5E722F05F
:101CA0000202F2E7D0ED00E0014B1860704700BF80
:101CB00024000020F0B54B79012B27D0032B22D133
:101CC00010268B79032B1ED1CC7924B1012C1AD18B
:101CD00043681B79BBB10A7912B1022A13D10E22D3
:101CE00047F612270B684568BB422D6863D029D898
:101CF000B3F5965F62D014D8B3F5167F60D007D8DD
:101D0000B3F5967F5FD06FF0220053E00026D8E74E
:101D1000B3F5966F5AD0B3F5166FF4D14FF41D2377
:101D20003CE0B3F5615F54D004D8B3F5165FEAD157
:101D3000334B33E0B3F5964F4DD0B3F5E14FE2D1DD
:101D4000304B2BE0B3F5E13F47D012D84DF6C0271A
:101D5000BB4245D005D8B3F5164FD4D14FF41D037F
:101D60001CE0B3F5614F3ED0B3F5963FCBD1264B87
:101D700014E0B3F5E12F39D008D8B3F5613F38D07E
:101D8000224FBB42BFD14FF0806307E0B3F5612F14
:101D900032D01F4FBB42B6D14FF08053C5F8243527
:101DA000C36834432243043303C9C5F86C2583E870
:101DB00003000020F0BD4FF40003EFE7154BEDE703
:101DC0004FF41C33EAE74FF4A033E7E74FF49E23C8
:101DD000E4E7114BE2E7114BE0E74FF0EB73DDE78F
:101DE0004FF46503DAE74FF46B03D7E74FF0E8638E
:101DF000D4E74FF06C73D1E74FF07063CEE700BFCC
:101E00000050270000C0750000903A0190D00300F8
:101E100040420F0000B0130000F03A0000A04E0056
:101E2000F8B50F680D4601214FF0000C4368C668F5
:101E30001C6807F01F02254B9140C4F800C53060B4
:101E400099600321803243F822106A68511C1EBF3A
:101E500002F01F01803143F821C0A968C4F80C7555
:101E60004F1C18BF0027C4F814251EBF01F01F0225
:101E7000803243F82270EF687A1C0CD04FF0010CCE
:101E800007F01F020CFA02FCC3F808C04FF0030C65
:101E9000803243F822C0C4F80875C4F81015C16830
:101EA0000431FFF707FF80B90823C4F800356B68D9
:101EB00001330AD0C4F81001D4F8103101231036D0
:101EC000C4F83465C4F838352360F8BD0025845063
:101ED00030B585B005466C46044B0FCB84E80F0047
:101EE00021462846FFF79CFF05B030BD8C5000000E
:101EF00030B585B005466C46044B0FCB84E80F0027
:101F000021462846FFF78CFF05B030BD9C500000ED
:101F10002DE9F0430025214C214E54F8048CDFF8C4
:101F2000889085B0A84503D8002005B0BDE8F083AF
:101F3000636A96E807001F6801AB83E807000C227C
:101F40001946384602F037FD90B98FB1636A2169AE
:101F50001B681A6991420BD19A69A169914207D80D
:101F6000E169914204D962695B6932EA03030AD0EC
:101F7000276A67B10B4802F01AFA404080F31188D3
:101F80004FF0040002DFE36801351C44CAE748460D
:101F900002F00DFA636A1F60F5E700BF3C02000023
:101FA000AC500000CF560000F8560000054B1868F2
:101FB000043B1B68092B03D1431E5842584170470C
:101FC000002070473401FF004F4A08B5136843F002
:101FD000020313604D4B1B68092B01BF4FF05023C8
:101FE0000022C3F81421C3F81821FFF7DFFF30B136
:101FF0000123474A1360A2F63822C2F87835434BD2
:102000001B68092B07D1434B1B68012B1EBF012204
:10201000414BC3F87825FFF7C9FF10B10E223F4BA3
:102020001A603A4B1B68092B04D100223C4B1A6002
:1020300001225A600022D30003F57F03D3F8001376
:10204000013108D0D3F800130132D3F80433B2F5CC
:10205000807F0B60EFD1334BDA69D1073BD5324B30
:102060001946D3F80024012AFBD1C3F80425D1F87E
:102070000034012BFBD12B4BDA69D20708D5DA6982
:10208000294922F00102DA61D1F80024012AFBD1AA
:102090001A6A01320AD11A6A22F0FF0242F02002C3
:1020A0001A62214AD2F80034012BFBD100221E4BC8
:1020B000C3F80425D3F80024012AFBD1BFF34F8FC6
:1020C0001A491B4BCA6802F4E0621343CB60BFF3AA
:1020D0004F8F00BFFDE71B6A0133C0D0134BD3F80D
:1020E0008C2042F44062C3F88C20D3F8882042F45C
:1020F0007002C3F88820BFF34F8FBFF36F8F0D4B73
:102100000D4A1A6008BD00BFD0ED00E03001FF00AD
:10211000384A00503401FF0000400050E4AE035044
:102120000C4700500080FF000090035000ED00E0DD
:102130000400FA05500000200090D003044B1A79E7
:1021400022B9012218601A7102487047024870478C
:10215000080800200000AD0B0C00AD0B10B10128E9
:1021600020D070474FF05022D2F81834D2F818140B
:10217000C90311D503F00303022B0DD1C2F81835A2
:1021800000220D4B1A601B6802224FF05023C3F847
:10219000042301229A6070474FF050230122C3F8B4
:1021A0001825EDE70022054B1A601B684FF05023FD
:1021B000C3F80403186070470451005000510050E8
:1021C00038B510B1012818D038BD4FF05023022285
:1021D000012142F210751C46C3F80823154A10600D
:1021E0001268154A1160D4F81834DB03ECD50120CD
:1021F00002F0C9FC013DF6D1E6E74FF05024002281
:1022000042F210750D4BC4F808031A601B680C4BA2
:102210001860D4F80C34D4F80C2403F00103D20372
:10222000D2D5002BD0D0012002F0ADFC013DF0D181
:10223000CAE700BF045100500C500050005100503C
:1022400004500050164B10B51A6852B100201860A7
:102250001B6801224FF05023C3F80823114B1B6861
:102260009847114B1A688AB100221A601B684FF018
:102270005023D3F81824D3F8181402F00302012ACB
:102280004FF0020103D1C3F818159A6010BDC3F8CE
:102290000813044B0120BDE810401B68184700BF1D
:1022A000005100500808002004510050F8B5104BB0
:1022B000104F53F82050013053F82060AE4200D840
:1022C000F8BDD5E900342046984770B16CB10123C0
:1022D000E41B2411084A610952F8210004F01F048C
:1022E00003FA04F4044342F821400835E6E700BF4E
:1022F00064520000BC0000200C010020084BC01AF2
:102300000011084B420953F82220012300F01F005E
:1023100003FA00F010420CBF18460020704700BFBF
:10232000BC0000200C010020114970B505460E4686
:10233000104C8C4204D10F4CB4420AD1002414E05A
:102340002046FFF7DBFF10B12368AB420DD01034FD
:10235000EFE72046FFF7D2FF08B91034ECE7216819
:10236000284602F01CFB0028F7D1204670BD00BFB4
:102370000C010020BC00002008B50B4D4FF02002DE
:10238000EFF3118382F31188BFF36F8F02F00BFD1F
:10239000012104460228D8BF084602F014FD2C6231
:1023A000FFF7A8F8EAE700BF100800200248034A38
:1023B0000021121A02F050BB6001002070080020BA
:1023C00008B50648064A0749121A02F01BFBBDE889
:1023D0000840054A0549064802F014BB00000020E9
:1023E00060010020745700000000000074570000D6
:1023F00000000020012208B50B4B02201A70FFF7E5
:1024000055FF0A4A0A490B4801F0D1FF0320FFF7A4
:102410004DFF00F0A9FD01F08FFE074A137B23F06A
:102420000103137308BD00BF6D080020C7530000EF
:102430003657000042570000E00100202DE9804897
:10244000374BA7B003F5006989F3088883F30A883E
:102450000024E023334D4FF0010B85F82230EC7758
:102460002C766C76AC76EC766B6A2F4E43F4E023D8
:102470006B626B6ADFF8CC8043F400236B62AC6361
:10248000FFF7C6F9FFF730F84FF0FF33AB62EB62AE
:1024900040F20113254DADF8243006ABAB60204669
:1024A000CDE92044FFF702FF0120FFF7FFFE00F017
:1024B00065FC1F4B6E624FF480621E490593CDE9A7
:1024C000034B4346CDE901440094304600F01EFD25
:1024D000737B824623F004033046737302F0C8FB1B
:1024E0000F23154FCDE902434FF4A072134B14494B
:1024F000CDE904B4CDE90044384600F007FD7B7B0C
:10250000EF6023F004037B7305F118032C75C5F805
:102510000490C5E90633424651463046FEF7C6FFF1
:10252000B00D002000ED00E0E001002010080020C8
:102530006957000070080020600100207923000026
:10254000700C0020F523000070B50E4B0E4CA3421A
:1025500001D3002070BDD3E9030141EA000212F06B
:1025600003020BD19D685A61AA4201D11C33EEE7E8
:102570005E6901320E6059610144F5E76FF01500A4
:10258000E8E700BF1001002010010020D3B50C4681
:1025900016461F464FF02003EFF3118183F3118895
:1025A000BFF36F8F43695BB123601B68436183692D
:1025B00001338361002081F31188BFF36F8F11E035
:1025C00056EA070203D123606FF00B00F3E70246DF
:1025D000CDE90067044800F04BFB18B9034B9B683A
:1025E0005B69236002B0D0BD6E0800201008002097
:1025F00070B504460D464FF02003EFF3118683F3C8
:102600001188BFF36F8F02F08BFB58B100212A684D
:10261000C167426102F02CFB3146BDE870400848BA
:1026200000F010B92B6862691A602B686361A369B6
:10263000013BA36186F31188BFF36F8F70BD00BFAC
:102640006E0800202DE9F341044616461F464FF060
:102650002003EFF3118883F31188BFF36F8FC368F2
:10266000324A6BB180689168884219D056EA0703F4
:1026700018D188F31188BFF36F8F6FF00F000CE053
:10268000916891F90E100133E36093682161A360B2
:1026900088F31188BFF36F8F002002B0BDE8F0818E
:1026A0002169F0E790F90E3091F90E109942A8BF18
:1026B000194621EAE17199422CDA00F01BFB05462C
:1026C000CDE9006722464146194800F0D1FA0028BA
:1026D000E3D04FF02003EFF3118683F31188BFF3AB
:1026E0006F8F23682169A34207D033B193F90E306D
:1026F0009942A8BF194621EAE171A06890F90E300D
:10270000994209D16DB13146094800F09BF86FF04C
:102710000A00C2E70025D3E700F0ECFA0028F2D166
:10272000F0E786F31188BFF36F8FF0E71008002001
:102730006E08002038B583680446002B36D01E4A48
:102740009268934235D1DA7B013ADA73C368012B80
:1027500005D0013BC36000F0D5F8002038BD4FF034
:102760002003EFF3118583F31188BFF36F8F0169A5
:10277000806890F90E30994201D000F0BBFA2046F3
:1027800002F0CEFAA06058B190F90E20226100222A
:10279000C26702F06DFA2946084800F053F8DAE7FC
:1027A000E06085F31188BFF36F8FD4E76FF01500F9
:1027B000D4E74FF0FF30D1E7100800206E0800206A
:1027C00010B5084C23685BB1FEF7CEFA2368064AC1
:1027D000184410610021BDE81040184602F0F3BA19
:1027E00010BD00BF4808002010080020F8B50D46B5
:1027F0004FF02003EFF3118483F31188BFF36F8F41
:102800004FF4004140F2E73600270022E1FB006769
:10281000094B30461A6139464FF47A720023FDF7AE
:102820000DFD064B1860064B1D60FFF7C9FF84F3D2
:102830001188BFF36F8FF8BD1008002048080020F2
:102840004408002049B9EFF3058030B9054B5A6AB6
:102850009B689A4201D0FEF781BD81F31188BFF3D6
:102860006F8F7047100800204FF02003EFF31181A5
:1028700083F31188BFF36F8F044B9A68D37B013BBE
:10288000D37381F31188BFF36F8F70471008002056
:10289000094B03F12802824205D19B688B4202D189
:1028A0004B7BDB0606D1D1E9003213605A6000236E
:1028B000C1E90033704700BF1008002070B5104C0C
:1028C000064604F1280002F0CDF90546A368597BBD
:1028D000880644BF41F00801597305B9E5684EB94F
:1028E0005A7BD20606D1AA6922B9DA897F2A01D990
:1028F000636270BDAB4201D0FFF762FF6562F8E72B
:102900001008002010B54FF02003EFF3118483F37B
:102910001188BFF36F8F084B00209A68D37B013377
:10292000D373FFF7CBFF84F31188BFF36F8FBDE83C
:10293000104002F080B900BF1008002070B4437B43
:10294000DB0627D183692BBB134A02F12801D2E9A8
:102950000A348B4218D0BBB190F90E5093F90E6037
:10296000AE420CDD5A68C0E9003210605860437B0B
:1029700063F07F03437370BC0020FFF79FBF9C424E
:1029800002D01B68002BE9D1C0E90014D36A18609B
:10299000D062ECE770BC70471008002010B54FF013
:1029A0002003EFF3118483F31188BFF36F8F437B10
:1029B000590704D484F31188BFF36F8F10BD23F03F
:1029C00004034373FFF7BAFF2146BDE810400148F6
:1029D000FFF738BF6E08002070B590F90D3004463F
:1029E000002B03DA01461648FFF752FF154A02F1A1
:1029F0002801D2E90A308B421CD0DBB194F90E5089
:102A000093F90E60AE4210DD5968C4E900310C60E4
:102A10005C60637B906863F07F036373031B5842C1
:102A20005841BDE87040FFF749BF984202D01B688B
:102A3000002BE5D1C4E90010D36A1C60D462E8E73A
:102A4000380800201008002070B54FF02003EFF385
:102A5000118483F31188BFF36F8F174A1749936866
:102A60000D68AB42154606D1FFF7AAFE84F3118824
:102A7000BFF36F8F70BD00260E6011490968C1B1A8
:102A8000D9897F2915D8597BC90612D10D4993F9E7
:102A90000E6009688E420CDB0B498B4209D011692C
:102AA000814203DC1846FFF797FFDDE7091A116141
:102AB000DCE700232B61D9E7100800204008002044
:102AC00048080020440800206001002070B504463A
:102AD000183002F052F94FF02003EFF3118683F320
:102AE0001188BFF36F8F94F90D30002B07DA214660
:102AF0000E48FFF7CDFE637B03F07F0363730C4D3D
:102B0000637BA86843F010036373031B584258416A
:102B1000FFF7D4FE86F31188BFF36F8FAB68A34233
:102B200003D1BDE8704002F086B870BD38080020BF
:102B300010080020036E2DE9F041044603B19847C8
:102B400004F1180002F019F94FF02003EFF3118699
:102B500083F31188BFF36F8F637BD80623D1A269FB
:102B60000ABB190607D521461E48FFF791FE637B75
:102B700003F07F0363731C4B9868021B5042504163
:102B8000FFF79CFE0027637B04F1300843F0080345
:102B90006373256B454500D095B986F31188BFF363
:102BA0006F8FBDE8F0819B07ECD52146A068FFF749
:102BB0006FFE637B23F0020363730023A360E1E7EE
:102BC00005F1180002F0D9F8A8682946FFF760FE61
:102BD0006B7BAF6023F002036B73EF672846FFF750
:102BE000ADFED6E7380800201008002010B590F997
:102BF0000D300446002B07DA01460848FFF748FE6F
:102C0000637B03F07F036373054B9868031B584293
:102C10005841BDE81040FFF751BE00BF3808002002
:102C2000100800202DE9F041064614461D464FF0DD
:102C30002003EFF3118783F31188BFF36F8F02F046
:102C400047F887F31188BFF36F8F6B1C08BFB4F18F
:102C5000FF3F08D022462B4606F118000349BDE885
:102C6000F04100F02BBABDE8F08100BF914C0000AC
:102C700010B50C46064B11469868064B1860DDE906
:102C80000223FFF7CFFF2046BDE81040FEF766BBEA
:102C90001008002040080020F8B5064602F0ADF804
:102CA00034184FF02003EFF3118783F31188BFF33B
:102CB0006F8F0D4D0D4BA8681860FFF797FFA86840
:102CC0000B493246F317183000F0F8F9AA68384675
:102CD000537B43F010035373FEF740FB02F08DF873
:102CE000201A20EAE070F8BD1008002040080020FB
:102CF000914C00002DE9F04104464FF02003EFF322
:102D0000118883F31188BFF36F8F437B4EB2DB06CC
:102D10002ED1836963BB184D014605F1280738465B
:102D2000FFF7B6FDAB6AA673BB422A4619D0C3B102
:102D3000E96A93F90E00B0420EDD5A68C4E9003228
:102D400014605C600120FFF7B9FD012088F3118851
:102D5000BFF36F8FBDE8F081994202D01B68002B52
:102D6000E7D1D36A27606360D36A1C60D462E9E765
:102D7000A6730020EAE700BF100800200021044BE2
:102D8000084603F12802C3E90A22FFF72FBD00BF5E
:102D900010080020F8B5234C234BA2689A4229D092
:102DA0004FF02003EFF3118683F31188BFF36F8F89
:102DB00004F12805A1682846FFF76AFDA26AA36806
:102DC000AA4228D03AB3E06A93F90E1092F90E7035
:102DD0008F421BDD5168C3E900210B6053605A7BB1
:102DE000012062F07F025A73FFF768FD86F31188B5
:102DF000BFF36F8F4FF02003EFF3118083F311883F
:102E0000BFF36F8FBDE8F840FEF7A8BA824202D048
:102E10001268002ADAD1E26A1D605A60E26A136021
:102E2000E362DCE71008002060010020013108BFE8
:102E3000B0F1FF3F10B506D10B4B9868FFF746FE87
:102E40004FF0FF3010BD044648B9FFF7A3FF4FF421
:102E50007A7084FB0034D80B40EA4440F2E7FFF775
:102E60001BFF0446F3E700BF10080020014B9868E1
:102E7000704700BF1008002038B504464FF020030B
:102E8000EFF3118583F31188BFF36F8F01F048FFD3
:102E900048B10022C26701F0EBFE2946BDE8384088
:102EA0000448FFF7CFBCD4E902329A4218BF01337D
:102EB000A360F2E76E08002037B514461D464FF0B8
:102EC0002003EFF3118183F31188BFF36F8F8368C1
:102ED00043B1013B836081F31188BFF36F8F002002
:102EE00003B030BD54EA050306D181F31188BFF366
:102EF0006F8F6FF00F00F3E70246CDE900450248FF
:102F0000FFF7B6FEECE700BF6E080020F0B500F159
:102F1000300585B0C0E90C550E9D044605730425A7
:102F200045730D9D07328573002522F00702C0E925
:102F30001A128E180C9AC573C0E9065505670292DD
:102F40000B9A01920A9A00923246FEF793FA054BC9
:102F5000C4E917559B6803B15B6F3046636705B0E2
:102F6000F0BD00BF100800202DE9F0472A4E2B4D80
:102F7000B04686B0B54205F1300410D3FFF774FCBB
:102F80004FF4004940F2E7360027244CDFF890A0C8
:102F9000444521D306B0BDE8F047FFF7B3BC54F871
:102FA000043C059354F8103C049354F8143C0393E8
:102FB00054F8183C029354F81C3C019354F8203CFC
:102FC000009354E90A2354E90C01FFF79FFF54F8DA
:102FD000303CDD652546CDE7636A5A1C0DD030468E
:102FE000394623EAE373C9FB0301B94208BFB04283
:102FF000256804D12846FFF7D1FC3034C8E74FF4E8
:103000007A720023FDF71AF902460B4605F1180003
:10301000514600F053F8F0E71001002010010020A5
:10302000914C0000034B1B680BB9FDF79DBE0020BF
:10303000704700BF4C08002030B5036868B10A4AE9
:103040005268904209D043B1D3E90421D0E9044544
:10305000121945EB0101C3E90421426813605A606B
:103060000023C0E9003330BD5400002038B5114BB7
:103070001C689C4208BF0024FFF7D4FFB4B1D4E918
:103080000423141A63EBE075B4F1004F75F10003EB
:103090000CDA002C75F10003204600DA0020064B04
:1030A0001B6913B19842A8BF184638BD6FF00040A5
:1030B000F5E700BF54000020100800202DE9F74F6D
:1030C0000191591C08BFB2F1FF3F82466ED0541CDB
:1030D00043F100056FF001034FF0FF3BB3EB040831
:1030E0006BEB0509B8F1000F79F100030FDBFFF777
:1030F00099FF6FF00103344AD2E9001C5B1A6BEBB5
:103100000C021E1B62EB0507341A67EBE075019B8E
:10311000CAF808304FF02003EFF3118683F31188CB
:10312000BFF36F8FFFF77EFF012C75F1000321467F
:10313000B8BF01212A46B8BF0022244B0C1842EB2D
:10314000E0751A68CAE904459A4201D05F6852B92D
:103150005A68CAF80030CAF804205A68C2F800A0B9
:10316000C3F804A014E0D2E90489DAE9044544452F
:1031700075EB09011DDAB8EB040069EB0501C2E942
:1031800004015168CAE90021C1F800A0C2F804A0F6
:103190001A689A4206D0924504D1FFF767FF0021D2
:1031A000FDF77CFD86F31188BFF36F8F03B0BDE898
:1031B000F08FB4EB080065EB0901BA42CAE90401DB
:1031C000C6D01268C3E700BF600200205400002090
:1031D0002DE9F74F0446FFF737FC4FF02003EFF3DC
:1031E000118583F31188BFF36F8F2C4BDFF8B090FC
:1031F0009846CB46DFF8ACA01C60D8F800C0DAF8DF
:1032000000406646D9E900235445CDE900234FEA42
:10321000E6770CD05CB1D4E904128C4577EB02035D
:103220001BDAB1EB0C0062EB0701C4E904010024D6
:10323000009BC8F80040F218019B47EB0303CBE961
:103240000023FFF713FF2146FDF728FD85F31188C2
:10325000BFF36F8F03B0BDE8F08F0022DDE9006798
:1032600000237618ACEB010047EBE177C8F80000CB
:10327000C4E904232046C9E90067FFF7DDFE85F3B2
:103280001188BFF36F8FA36898474FF02003EFF3C7
:10329000118583F31188BFF36F8FAEE74C080020D0
:1032A00060020020540000202DE918484FF0200350
:1032B000EFF3118483F31188BFF36F8FFDF754FD93
:1032C000074BD3E9002312EB000B43F1000C5846E7
:1032D000614684F31188BFF36F8FBDE8188800BF83
:1032E0006002002038B5064C064DAC4201D30020E8
:1032F00038BDD4E90112204601F083FD1434F4E70F
:10330000100100201001002001F065BB0A460021D9
:1033100001F0A2BB10B5114800F048F800B110BD93
:103320000F4800F043F80028F9D10E4C204600F079
:103330003DF80028F3D10C4B0C481C6000F036F827
:1033400001460028EBD100F02DF8044608B12046D4
:1033500010BD00F051F82046FAE700BF68000020D9
:103360005C000020640000206C0000206000002051
:1033700008B5084800F024F8074800F021F807488D
:1033800000F01EF8064800F01BF8BDE8084000F009
:103390000BB800BF680000205C0000206400002023
:1033A0006000002000207047704700BF08B5034B45
:1033B00002681B6810689847002008BD8000002044
:1033C00008B5034B02685B6810689847002008BD89
:1033D00080000020024B02689B681068184700BFFD
:1033E0008000002008B5034B0268DB68106898472E
:1033F000002008BD8000002070B5094C094D2069EF
:10340000AB68984718B1084B08485B68984700219B
:10341000074AEB6811602069BDE87040184700BF9B
:103420009000002080000020700000207C520000EE
:103430005008002070B51A4D1A4E0446B26828692B
:103440009047F0B95CB1184C2368ABB1012B1AD08E
:10345000013B23602869F3689847002070BD124C37
:10346000216839B90120114B114AC3F800051368CE
:10347000002BFCD101312160F368286998470020B6
:1034800070BD0C4870BD0A4A1368002BFCD1074A76
:103490006FF07E40C2F8003500F020F82368D7E7CF
:1034A0009000002080000020500800200000845080
:1034B00010198450E98FFFFF0020704700207047EB
:1034C000430503D54FF0FF32024B1A60024B1860E0
:1034D000704700BF08118450081A8450014B1860CF
:1034E000704700BF041A845008B100F003B84FF4CD
:1034F000750070470246074803681342FCD021B1AB
:10350000054B06481B680B600360054B00201A60E2
:10351000704700BF001A8450041184500811845071
:10352000081A845000F09EB838B131B1002201442D
:103530000346013081421A70FAD170472DE9F041FB
:10354000ADF51A7D0E4605920021144612A84FF4DF
:1035500008721D4601F080FA0021282208A8069171
:1035600001F07AFA002E3CD0002D3AD0002C38D051
:10357000042106A8FFF7CAFE08A82821FFF7C6FE07
:1035800008A800F031F878B14FF0FF374FF4087118
:1035900012A8FFF7C9FF042106A8FFF7C5FF3846A8
:1035A0000DF51A7DBDE8F08112AB0DF11C08024645
:1035B000CDE90153039005AB08A9CDF8008006A81A
:1035C00000F014FD0028DFD12B68A342DCD3D8F82B
:1035D00000100746224630460831FFF795FE2C6062
:1035E000D4E74FF0FF37DAE71C2330B583B001A9E9
:1035F0000446019300F0CEF9054638B9019B1C2B17
:1036000007D0164D20461C21FFF780FE284603B048
:1036100030BD0121D4E90032003B18BF0123E16134
:103620000AB143F00203A26832B9E26842B9C4E9C0
:1036300008328BB90A4DE5E7E26843F004033AB17A
:103640000022284643F00803C4E9083203B030BD25
:103650001546C4E90832D9E71546D7E7370CF0001C
:103660000E0CF00010B50C4C236813B10B4B1B680B
:103670002BB900F04FF930B90122084B1A60012331
:103680000020236010BD0138062801D9044810BD70
:10369000044B53F8200010BD5408002058080020A7
:1036A000FE8FFFFF9C52000010B50A4C23681BB12F
:1036B00001230020236010BD00F098F80028F7D007
:1036C0000138062803D8044B53F8200010BD0348E6
:1036D00010BD00BF540800209C520000FE8FFFFF69
:1036E000BFF34F8F0549064BCA6802F4E0621343EB
:1036F000CB60BFF34F8F00BFFDE700BF00ED00E0E0
:103700000400FA05014B5B68184700BF70000020F9
:10371000024BD0E90012C3E900127047700000208C
:1037200048B143682BB1BFF35F8F00230360184695
:103730007047024870476FF4E0407047EA8FFFFF20
:1037400010B5044628B1636813B100232360636099
:1037500010BD024B02485B689847F4E770000020F8
:10376000B852000010B5044630B1002263682260F0
:1037700043F00103636010BD0148FFF7C3FFF4E7A6
:10378000E052000080B1436863B10122D0E8EF3F0E
:10379000C0E8E12F0029F9D1012BF7D0BFF35F8FEB
:1037A00000207047024870476FF4E040704700BF48
:1037B000EA8FFFFF70B40B4B0668C268D0E9015472
:1037C000C3E90242C3E90065D1E903020E68064B72
:1037D000D1E90154C3E90065C3E902401A6170BC34
:1037E000704700BF800000209000002010B5FFF758
:1037F00063FE20B10324FFF7BBFD204610BDFFF799
:1038000089FD90B9FFF716FE90B90F4B1B681B0E90
:10381000F02B08D10D4A0E4B12689A420AD00724A9
:10382000FFF74CFEE7E70624FAE70424204610BD24
:103830000024F5E70120FFF7FDFD04460028F7D13D
:10384000044B1860D9E700BF28198450241A84500B
:103850000000E0200C1A845030B5ADF5157D4FF412
:10386000087200210CA801F0F7F80021282202A814
:10387000019101F0F1F802A8FFF7B6FE20B105248E
:1038800020460DF5157D30BD1D4D4FF0FF312868E8
:10389000FFF7A0FD0446E8B90020FFF7CBFD58BBB9
:1038A0000CAA02A901A800F0EDFB04460120FFF7D5
:1038B000C1FDE8B92868FFF795FD28B9002CDED1D5
:1038C00020460DF5157D30BD0E48FFF71BFF002C7F
:1038D000F6D0D4E70C48FFF715FF012CDCD128689F
:1038E000FFF780FD0028CAD00648FFF70BFFC6E7A8
:1038F0000648FFF707FFDDE70548FFF703FFCFE7BF
:103900006C0000201C5300000453000054530000BE
:103910003453000008B5FFF7CFFD18B1FFF728FDBD
:10392000032008BDFFF7F6FCC0B9FFF783FDB8B967
:10393000144B1B681B0EF02B0AD1134A134B126851
:103940009A4217D0FFF7BAFDFFF712FD072008BD16
:10395000FFF7B4FDFFF70CFD062008BD042008BDED
:10396000FFF7ACFDFFF704FDFFF776FF002818BF57
:10397000052008BD0120FFF75DFD0028F0D1044BB4
:103980001860F1E728198450241A84500000E020C0
:103990000C1A8450002866D0002964D00B681C2BB8
:1039A00061D14FF47F033B4AD3F8101C91425CD0A5
:1039B000D3F8102C013258D0D3F8102C4FF47F03D9
:1039C0000260D3F8141C344A914260D0D3F8142C0E
:1039D00001325CD0D3F8142C4FF47F034260D3F84B
:1039E000182C12F5947F4FD0D3F8182C01324BD0FD
:1039F000D3F8182C4FF47F038260D3F81C1C274A9D
:103A000091423ED0D3F81C2C01323AD0D3F81C2C72
:103A10004FF47F03C260D3F8002C70322FD0D3F85C
:103A2000002C01322BD0D3F8002C4FF47F0302611D
:103A3000D3F8042CAF3220D0D3F8042C01321CD0A0
:103A4000D3F8042C4FF47F034261D3F8081C144AC6
:103A500091420DD0D3F8082C013209D0D3F8083C9C
:103A60008361002070470120704740F6FC02A5E703
:103A700040F237338361002070475122E2E7902201
:103A8000D3E742F60412C3E740F6D862B2E742F247
:103A9000D002A1E7FCF8FFFFD020FFFF0429FFFFC1
:103AA00037F3FFFF2DE9F843002877D00C460029B3
:103AB00074D01D46002B71D006461AB10122002396
:103AC0002A6003602B68002B64D02946204600F052
:103AD00015FB074600285ED12146286800F0F0FA61
:103AE0000746002857D12B68082B66D0042B67D0D7
:103AF000A3F10208B8FA88F84FEA581801239C4647
:103B0000314A3249136010460B60943AC0F800C045
:103B1000636A136011688B42F8D14FF000092C4B97
:103B20004FF0FF30C3F80090FFF7CAFC294B2A4A38
:103B300048461A60FFF7D2FC284A294BC2F8008099
:103B4000186840F48060FFF7C9FC0A22254B1A6010
:103B5000089A2369012A616A24D0234AA2FB03231D
:103B60001B09012203FB01F303EB43031F49DB03A2
:103B70009B090B60164B38461A6033682A6823F09D
:103B80007F4343EA026333602A6843EA02233360D7
:103B9000BDE8F883164F3846BDE8F883154F384620
:103BA000BDE8F8834FF47F03D3F80C2C013202D028
:103BB000D3F80C3CD1E71623D3E74FF003089DE779
:103BC0004FF002089AE700BFC4118450401184509E
:103BD0002C11845000118450FEFFFF0F0C118450F3
:103BE000041A845038118450ABAAAAAAD811845060
:103BF000310CF100350CF100F0B40024C900264668
:103C0000274601F1FF3C06E09F4215D0012665459D
:103C100018D82C461F46630950F8233004F01F01C2
:103C2000CB401F2904F1010518BF03F00103002C4C
:103C3000EAD101263546ECE701369642E7D1034842
:103C4000F0BC70470020F0BC704700BF360CF1009C
:103C500000285FD02DE9F0414C1EB4F5047F26D238
:103C60002BB322B3CC00012B04F1FF3E2FD0002157
:103C70008C460F460D4603F1FF384C0950F824409E
:103C800001F01F06F4401F2E18BF04F0010421B9F3
:103C90000125AC4629462746EFE7AB4213D0A742A1
:103CA00001D10CF1010C454504D1624502D21A48FC
:103CB000BDE8F0813C4601318E4505F10105EAD2AF
:103CC0000020BDE8F08100254FF0010CF3E700264D
:103CD000B446374631464B0950F8233001F01F05F2
:103CE000EB401F2D18BF03F0010339B15FB99C45AC
:103CF00001D0634608E06346013605E001263146FF
:103D00009C460127E7E73E46B242D0D30131A142AB
:103D1000F6D1D5E700487047370CF1002DE9F04F98
:103D20008DB0189E07460C46179D002E4CD1D1F839
:103D300010B000211D60169B1960002A00F01E8142
:103D40009A4A9B4B1168626A1B689A4247D10A29BA
:103D500045D1FB7804930423B8460293954BA3FB0B
:103D60000B234FEA930A0AEB4A0305F10802039278
:103D7000ABEB430A169BC3F800B0BBF1000F00F099
:103D8000C3805D464FF00009039E00F0C7F9002391
:103D90000593B8F1000F00F0E580002C00F0E28000
:103DA000049B002B00F0DC80204604A900F0A6F95B
:103DB000B8B1814B984240F0A780029000F0AEF974
:103DC00002980DB0BDE8F08F4FF47F01D1F80C0CD4
:103DD00001300CBF4FF4047BD1F80CBCA9E7774845
:103DE000EBE72146049800F06BF90028E1D1049F2D
:103DF000082F00F0B980042F00F0B880A7F1020767
:103E0000B7FA87F77F09012319466D48036040F828
:103E1000843C6B4B66481960636A036000688342A8
:103E2000F7D10023674A4FF0FF301360FFF748FBDC
:103E3000002365491846654B1960FFF74FFB64493D
:103E4000644B0F6018685B4F40F48060FFF746FBDF
:103E50000A210122554B604819602169636AA7FB5A
:103E600001C1090903FB01F303EB4303DB039B09D6
:103E70000360544B05A81A600499D8F800200B027F
:103E800043EA016322F07F421343C8F8003000F098
:103E900007F900288DD1514BA7FB05271A68143369
:103EA000069253F8102CB9EB970F079253F80C2C8D
:103EB000089253F8082C099253F8042C0A921B68B4
:103EC0000B9302D1BAF1000F41D1182230460DEB0D
:103ED0000201FFF719FA183D183609F10109002D02
:103EE0007FF453AFBBF5047F5DD8039D5946284648
:103EF0006269FFF781FE00284BD00023169A1360F9
:103F00002D4B98423FF459AF049D082D34D0002228
:103F100004AB214640466D0000920495FFF7C2FDB8
:103F20002F4B984224D000287FF447AFD8F80020C8
:103F3000130A03F47F03134323F07F43C8F80030D0
:103F4000029B013B02937FF415AF002035E730461A
:103F5000524606A9FFF7D8F9A5EB0A055644BCE777
:103F60001F4826E71F4824E703274CE702274AE7B4
:103F7000236A002B3FF421AF1B481EE70122214694
:103F80003846009604ABFFF78DFD00283FF4E3AE02
:103F900013E74FF4806359462846A269FFF758FE9D
:103FA0000028AAD1D1E7169B1D60ADE738118450D7
:103FB00030118450ABAAAAAA020CF100300CF10017
:103FC000C41184502C118450FEFFFF0F0011845047
:103FD0000C118450041A8450D81184501411845048
:103FE000310CF100350CF100320CF1002DE9F041FB
:103FF0001F4E84B004460D4630684FF0FF319046A6
:104000000C9FFFF7E7F9D8B90020FFF713FAF8B9CA
:1040100000230B9A204600920293424629460A9BAF
:104020000197FFF77BFE04460120FFF703FAD0B9A2
:104030003068FFF7D7F978B9204604B0BDE8F081C1
:104040000C48FFF75FFB0020FFF7F4F90028DFD0F2
:104050000948FFF757FBDBE70848FFF753FB20460B
:1040600004B0BDE8F0810648FFF74CFBE0E700BF75
:104070006C00002004530000345300001C53000067
:104080005453000010B5012486B005ABCDE90124DE
:104090000093002204ABFFF741FE06B010BD00BF45
:1040A000014608B54FF48060FFF71EFA002302496D
:1040B000024A0B60136008BDC81184502C11845053
:1040C0000138072805D8DFE800F00A0E04120404BE
:1040D000040609487047CB6800204B6270470B68A4
:1040E00000204B6270474B6800204B6270478B6822
:1040F00000204B62704700BF310CF1000B6802E0FA
:10410000082B0B6006D8026A13424FEA4303F7D02C
:104110000020704700487047310CF100002304492B
:10412000044A0B604FF480601360FFF7C9B900BF09
:104130002C118450C411845008B5FCF71FFFBDE852
:104140000840FCF7B1BE60B1436803F00303012BE4
:1041500003D0032B05D103681BB1002383601846ED
:1041600070476FF0150070474268034602F0030283
:10417000032A4FF0000281600CBF006810465A60AD
:104180007047002070472DE9F04F002506460F4686
:104190001C464FF0FF39A84687B002F1FF3B4FF0B5
:1041A000000A07E0BAF1000F0BD1252800F0F080DB
:1041B0003946B0471BF8010F0028F3D107B0BDE81E
:1041C000F08F64286CD01AD839280AD831285ED2EA
:1041D0002D2800F0E48030284AD0252807D1394620
:1041E0000BE0582800F0A580632800F0CD80394608
:1041F0002520B04739469BF80000B047CFE770282C
:1042000000F08D800DD869284AD06C2803D16C2D20
:104210002AD14C25CEE76828E9D1682D24D148253C
:10422000C8E775283CD01BD87328E0D154F8043B6C
:104230009A4652461AF8010B002840F0A080B8F1C7
:10424000030F40F0B280A2EB030AA9EB0A0ABAF10D
:10425000000FA4DD39462020B0470AF1FF3AF6E707
:10426000782866D07A28C2D1002DC0D10546A1E7B2
:10427000B9F1000F0EDAB8F1000F00F09380A0F151
:104280003009B8F1000F08BF4FF0020892E7B9F10A
:10429000000FF4DB0A2303FB0909A9F13009F0E759
:1042A0007A2D06D1A2465AF8042BD317752825D1AA
:1042B0000FE06C2DF6D04C2D05D1073424F0070A01
:1042C000FAE80223F2E7752804F1040A226814D1FF
:1042D0000023B8F1030118BF0121B8F1010F0CBF91
:1042E0003020202001910A21CDE9020900913046B9
:1042F0003946FCF757F9544651E7D317002A73F1B2
:104300000001E6DA39462D20CDE90423B047DDE986
:104310000423524263EB430309F1FF39D9E73946DD
:104320003020B04739467820B0474FF008094FF0A9
:1043300001089BF80030702B03D154F8042B0023A4
:104340000AE06C2DF9D04C2DF7D1073424F0070387
:104350001C465B6854F8082BB8F1030118BF012113
:10436000B8F1010F0CBF3020202001911021CDE9C0
:104370000209009130463946FCF714F90FE7394637
:104380000493B047049B54E7394654F8040B34E7D0
:104390005546D0464FF0FF394FF0010A0AE74FF07B
:1043A000030807E74FF0010804E7824602E70FB46D
:1043B00007B504A951F8040B0191FCF743F903B0C8
:1043C0005DF804EB04B07047038B13F0070305D1CD
:1043D0000368002B0CBF002003207047022B05D17F
:1043E000438B002B14BF002004207047012B05D104
:1043F0000368002B0CBF0020052070470020704789
:104400002DE9F0410D4607461946281D90461E46E7
:10441000FFF7AAFE044638B13346424629463846DD
:10442000A446BDE8F0416047BDE8F08110B44FF00C
:104430002004EFF3118284F31188BFF36F8F416181
:104440005DF8044B0121FCF70BB910B50C4640B1E7
:1044500039B1081DFFF777FE28B9A36833F00303CD
:1044600001D06FF0150010BD38B50C46054658B1A7
:1044700051B10B6843B14B6833B11C22002100F0ED
:10448000EBFA00202C6138BD6FF01500FBE770B52A
:1044900004460D46FFF7D9FF061E31DB4FF020031F
:1044A000EFF3118183F31188BFF36F8F4FF6FF761F
:1044B000638B208BB34200F007022ED0022A0ED16C
:1044C000013363831646012381F31188BFF36F8F95
:1044D000B3B1002329462046FFF792FF10E083077F
:1044E00001D0062A0ED100232B60636893B9C4E97A
:1044F0000055164662B90A4620460221FCF7B0F87C
:10450000304670BD052A0CBF6FF022066FF004061E
:104510000023D9E71D606560EBE76FF00A06F7E757
:10452000044608B5084611461A46A047FEF79EFC09
:10453000FDF7A6F9836800EBC101B3F5004F2CBF6E
:1045400051F8220031F81200704700EBC101806879
:10455000B0F5004F2CBF41F8223021F812307047DF
:1045600008B50122FFF7E6FF400808BD836800EBAD
:10457000C101B3F5004F08D34B681AB143F00103F2
:104580004B60704723F00103FAE74B881AB143F000
:1045900001034B80704723F00103FAE75300012227
:1045A000FFF7D3BF8368481CB3F5004F2CBF02232D
:1045B0000123C01AB0FA80F0C0F11F0070472DE946
:1045C000F04104460D46FFF7CBFFA3680146B3F563
:1045D000004F01D3012835D02046FFF7E3FF04EB5D
:1045E000800216699EB9012303FA00F0E3682946A8
:1045F0000343E360204615612B460222FFF7A5FF27
:10460000032229462046BDE8F041FFF79EBF022263
:1046100031462046FFF78EFF074603460222294611
:104620002046FFF792FF3346032229462046FFF734
:104630008CFF032239462B462046FFF786FF0222D5
:104640003146DFE7BDE8F081B2F5802FF8B52CBF29
:10465000082504250023551B0022CC1D0D4424F001
:10466000070425F007052D1BED0804602946C4E961
:104670000023C4E902522046FFF794FF1346860048
:104680001B36471CF60804F11001BB4229DB3246F9
:1046900020460021FFF782FFAF1B204601220021A8
:1046A000FFF764FF3A463146FFF778FF334631465D
:1046B00020460022FFF749FF294620460022FFF747
:1046C0006DFF3B46294620460022FFF73EFF294664
:1046D00020460122FFF74AFF3146BDE8F840FFF7C8
:1046E0006EBF41F8042B0133CFE77047FDF76CBC78
:1046F0000C23C268C9B201FB0323186C00F0070049
:1047000070474FF02003EFF3118283F31188BFF35A
:104710006F8F036813F0C00301D08B4207D10123D0
:104720000360002082F31188BFF36F8F70474FF052
:10473000FF30F7E710B54FF02003EFF3118283F35A
:104740001188BFF36F8F036803F00704012C06D1B3
:104750000160002082F31188BFF36F8F10BD03F05A
:10476000C0038B4214BF4FF0FF306FF00F00F1E732
:104770004FF02003EFF3118283F31188BFF36F8FA3
:10478000036803F0C00343F00203036082F311885F
:10479000BFF36F8F7047C3681C2010B4CCB204FB0A
:1047A000003000215DF8044B10471046FEF764BB53
:1047B0000020FDF705BD0020FDF7D0BC38B50C2367
:1047C000CCB263430546C068403380211844FFF7EC
:1047D00098FF002805DB696801EBC4014B68984726
:1047E000002038BD2DE9F0410C25CEB27543C468D8
:1047F000074605F14000802120449046FFF79AFFCC
:1048000000280BDBD8F804302C44A363D8F8083018
:10481000E3637B6853F8363098470020BDE8F081A9
:10482000704770477047002307B501A88DF8043022
:10483000FEF778FE03B05DF804FB902908B5134637
:1048400039D10A4601460020FEF778FEBDE808404F
:10485000714672467346B7EE000AF7EE000AB7EEED
:10486000001AF7EE001AB7EE002AF7EE002AB7EEAC
:10487000003AF7EE003AB7EE004AF7EE004AB7EE1C
:10488000005AF7EE005AB7EE006AF7EE006AB7EE8C
:10489000007AF7EE007A8EF3008C10B4F1EE10CAB5
:1048A0004FF66074C0F6FF740CEA040CE1EE10CA17
:1048B00010BCF44674476FF01500C7E70020FBF703
:1048C000CBBF0021012000F032B843B2C9B9002BA0
:1048D00015DB01215B099B0003F1604303F5614394
:1048E000D3F8802200F01F00814022EA0102C3F8C1
:1048F0008022D3F88012C14001F00101C9B20846FC
:104900007047002B0DDB01225B099B0003F1604324
:1049100003F56143D3F8801200F01F0082400A4380
:10492000E5E70021EBE7836E83F30B88704700F027
:1049300037B90146006800F033B908B5FCF7F2FD5D
:10494000BDE80840FCF770BF30B50B6885B04C6817
:104950009DF808200D89013C0093498923F01F032D
:10496000234465F3040261F3471223F01F030F2869
:104970008DF808200393044605D86946FCF7D6FF56
:10498000204605B030BD6FF01504F9E740E800F3AC
:1049900013F4803FD8B208BF6FF01500704701389C
:1049A000013910F8013F11F8012F934201D1002B7A
:1049B000F7D1981A704710B55AB10139841810F818
:1049C000012B11F8013FA04201D09A42F7D0D01A32
:1049D00010BD1046FCE7431A934210B500EB0203EA
:1049E00008D3024601399A420BD011F8014F02F860
:1049F000014BF8E70A4412F8014D8A4203F8014DD1
:104A0000F9D110BDF0B581EA0004A50703460BD02B
:104A1000013B0A4491421AD1F0BD002AFCD011F8A2
:104A2000014B013A03F8014B9C07F6D19508AC0005
:104A30001E1F0F19B94205D16FF00306234406FB70
:104A40000522E5E751F804CB46F804CFF2E711F868
:104A5000014B03F8014FDDE7034670B5C9B29C076F
:104A600010D141EA012444EA0445940803EB84068A
:104A7000B3420DD16FF0030505FB04241C44A3428F
:104A800009D170BD002AFCD003F8011B013AE6E70A
:104A900043F8045BECE703F8011BF0E74FF0FF304D
:104AA00070470A46C368043393E8030082E80300B2
:104AB0000020704743681B68D3F88004C3F8800463
:104AC00070474368C2681B68D3F8100148B10020E2
:104AD000127C0A70C3F81001D3F8102101221A6069
:104AE00070474FF0FF3070472DE9F34143688DF870
:104AF00007101C68C66800F038F998BB64254FF0B1
:104B0000010806F10C07D7E8EF3F002B03D1C7E8F7
:104B1000E28F002AF7D107D021200021013DFEF7C6
:104B200085F915F0FF05EED10023C4F82031D4F843
:104B300020310DF10703C4F8443501234FF47A7591
:104B4000C4F84835A360D4F8203123B9012000F01F
:104B50001AF8013DF7D10123E3600023F36002B0AE
:104B6000BDE8F0810123F360DEE708B50020FCF723
:104B700069FE08B5FCF758FBFCF7DAFBBDE8084016
:104B8000FEF792BD004700F0F6B808B50520FCF727
:104B90004BFC20B9BDE808400520FCF735BC08BD3A
:104BA000F8B506460F464FF02003EFF3118583F367
:104BB0001188BFF36F8FFEF759F939460446304626
:104BC000FFF7D3FF85F31188BFF36F8F2046BDE851
:104BD000F840FCF755BEFFF724BE30B500248461D1
:104BE00041EA020414F00304C0E9023201610CD16D
:104BF0004461A34203D1C0E90000002030BD4569F3
:104C000001340D6041611144F3E76FF01500F5E7E1
:104C100003460020C3E90033C3E90200704703469E
:104C200020B9EFF305820AB9FCF798BB83F311882A
:104C3000BFF36F8F70474FF02003EFF3118083F3C2
:104C40001188BFF36F8FFFF7EABF10B50446014626
:104C50008068FDF71DFE637B23F00203637300236E
:104C6000A36010BD0368984214BF18460020704727
:104C700010B54FF02003EFF3118483F31188BFF3D5
:104C80006F8FFDF75BFE84F31188BFF36F8F10BD4C
:104C900070B504464FF02003EFF3118683F31188BB
:104CA000BFF36F8F50F8103CA0F1180513B12846E0
:104CB000FFF7CBFF14F80B3C284623F0140304F84D
:104CC0000B3CFDF73BFE86F31188BFF36F8F70BD81
:104CD00038B504460D46FDF789FF637B43F00203B8
:104CE00063737DB12B68A5609D4212D08BB194F99E
:104CF0000E2093F90E10914205DD5A68C4E9003286
:104D000014605C6038BD69688B4202D01B68002B60
:104D1000EFD16B68256063606B681C606C60F1E7C5
:104D200038B54FF02003EFF3118283F31188BFF3FE
:104D30006F8FFFF797FF044682F31188BFF36F8FE1
:104D400088B14FF02003EFF3118583F31188BFF38F
:104D50006F8FFFF77AFF85F31188BFF36F8F04F130
:104D6000180000F00AF8204638BDEFF30580003047
:104D700018BF01207047FBF765BD10B54FF020024A
:104D8000EFF3118482F31188BFF36F8F03683BB197
:104D9000FEF752F9002084F31188BFF36F8F10BD26
:104DA0006FF01500F7E710B54FF02003EFF3118413
:104DB00083F31188BFF36F8FFEF758F984F31188DE
:104DC000BFF36F8F10BD70B504460E464FF0200341
:104DD000EFF3118583F31188BFF36F8FFEF746F968
:104DE000012805DDA04203DD31462046FBF756FFD2
:104DF00085F31188BFF36F8F70BD08B5FEF754FAC5
:104E000008BD10B400F10C04C0E903445DF8044B84
:104E1000FFF71ABC7047FFFF54B4FF7F010000008A
:104E20001D080000000000004925000000000000EF
:104E3000E532000000000000B51A0000000000008C
:104E40007D090000BC000020F11E0000CC00002005
:104E5000D11E0000DC0000208908000000000000D6
:104E6000490C0000EC000020734B0000FC00002007
:104E7000111F00000000000000000000C3480000F7
:104E800000000000C348000000000000C34800000C
:104E900000000000C348000000000000C3480000FC
:104EA00045220000854B000000000000C3480000C0
:104EB00000000000C348000000000000C3480000DC
:104EC00000000000C348000000000000C3480000CC
:104ED00000000000C348000000000000C3480000BC
:104EE00000000000C348000000000000C3480000AC
:104EF00000000000C348000000000000C34800009C
:104F000000000000C348000000000000C34800008B
:104F100000000000C348000000000000C34800007B
:104F2000000000001D0C000000000000C34800004D
:104F300000000000C348000000000000C34800005B
:104F400000000000C348000000000000C34800004B
:104F500000000000C348000000000000C34800003B
:104F600000000000C348000000000000C34800002B
:104F700000000000C348000000000000C34800001B
:104F800000000000C348000000000000C34800000B
:104F900000000000C348000000000000C3480000FB
:104FA00000000000C348000000000000C3480000EB
:104FB00000000000C348000000000000C3480000DB
:104FC00000000000C348000000000000C3480000CB
:104FD00000000000C348000000000000C3480000BB
:104FE00000000000C348000000000000C3480000AB
:104FF00000000000C348000000000000C34800009B
:1050000000000000C348000000000000C34800008A
:1050100000000000C348000000000000C34800007A
:1050200000000000C348000000000000C34800006A
:1050300000000000C348000000000000C34800005A
:1050400000000000C348000000000000C34800004A
:1050500000000000C348000000000000C34800003A
:1050600000000000C348000000000000C34800002A
:1050700000000000C348000000000000C34800001A
:10508000DEE61E284CBBCE8F025B00001D00000038
:105090001C0000001A0000001B00000001000000BE
:1050A000000000000F0000000E000000DEE61E28D9
:1050B000EAAC45B8025B0000DEE61E284CBBCE8F92
:1050C000025B000000000000000000000000000083
:1050D0000338FDD870470000B50A0000BD47000046
:1050E000E547000000000000F1460000110A000042
:1050F000910A0000B7470000B147000025090000F1
:10510000DD080000000000006A55000042010000B8
:1051100071550000050100007B55000014010000DE
:1051200084550000150100008D5500003901000074
:105130009655000009010000A15500000A0000007A
:10514000AC5500000A010000B65500000B0100003C
:10515000C05500000F010000CB55000010010000F9
:10516000D655000011010000E15500000E010000BD
:10517000EB55000021010000F45500002201000061
:10518000FD55000023010000065600002401000028
:105190000F56000018010000175600002A010000F9
:1051A0001F5600003A010000275600002C010000A5
:1051B0002F5600001C010000385600001D010000A1
:1051C00041560000170100004B560000310100005D
:1051D000575600000401000000000000000200001B
:1051E00000040000000800000010000000000000A3
:1051F000BD4800009512000055120000FD1200008D
:10520000351200001C0000200400002014000020C3
:10521000000000000C0000200200000020520000EE
:1052200000000000B956000006000000E0FF0F007B
:1052300000000020C156000021000000E0FF002017
:10524000C34A0000E94A0000B54A0000B51C00004E
:10525000A34A0000008000500600000000900050AB
:1052600006000000204E0000604E0000684E000066
:10527000784E0000784E0000F5FFFFFF436F756C1D
:1052800064206E6F74206C6F636B20706F77657233
:105290002073617665206D7574657800FF8FFFFF60
:1052A000FF8FFFFFFE8FFFFFFE8FFFFFFD8FFFFFD2
:1052B000FC8FFFFFFC8FFFFF6D757465785F667272
:1052C00065652063616C6C65642077697468204E45
:1052D000554C4C20706172616D6574657200000000
:1052E00043616E277420696E697469616C697A65BF
:1052F000206D757465782C20776173204E554C4C69
:105300000D0A00004661696C20746F20616371753D
:10531000697265206D757465780A00004661696C74
:1053200020746F2072656C65617365206D7574659E
:10533000780A00004661696C20746F20696E6372A0
:105340006561736520504D20636F756E7465720AD8
:10535000000000004661696C20746F206465637210
:105360006561736520504D20636F756E7465720AB8
:10537000000000003031323334353637383961625D
:1053800063646566004661696C656420746F2072B1
:1053900065626F6F743A207370696E6E696E672014
:1053A000656E646C6573736C792E2E2E0A00554100
:1053B00052545F30007379735F636C6F636B00539B
:1053C00065637572650909004E6F6E2D53656375CF
:1053D000726509002530327520253032752030780D
:1053E0002530357820307825303578200900256340
:1053F000004E6F6E2D53656375726500466C617368
:105400006820726567696F6E730909446F6D616921
:105410006E09095065726D697373696F6E730A0066
:105420004E6F6E2D7365637572652063616C6C6180
:10543000626C6520726567696F6E203020706C61E8
:1054400063656420696E20666C61736820726567AD
:10545000696F6E20256420776974682073697A65A6
:105460002025642E0A00436F756C64206E6F7420D3
:10547000696E697469616C697A65207365637572B8
:105480006520736572766963657320286572722082
:105490002564292E0A005352414D20726567696FB9
:1054A0006E0909446F6D61696E09095065726D6915
:1054B0007373696F6E730A00506572697068657204
:1054C000616C0909446F6D61696E090953746174F7
:1054D00075730A002530327520252D3231732573FE
:1054E0000009534B49500A00094552524F520A00D5
:1054F000094F4B0A0053504D3A204E5320696D61BD
:10550000676520617420307825780A0053504D3A41
:10551000204E53204D535020617420307825780A56
:105520000053504D3A204E532072657365742076B7
:105530006563746F7220617420307825780A005397
:10554000504D3A207072657061726520746F206AE8
:10555000756D7020746F204E6F6E2D53656375727C
:105560006520696D6167652E0A004E52465F5030B6
:10557000004E52465F434C4F434B004E52465F52E3
:10558000544330004E52465F52544331004E52460F
:105590005F4E564D43004E52465F55415254453181
:1055A000004E52465F554152544532004E52465FBE
:1055B0005457494D32004E52465F5350494D3300C7
:1055C0004E52465F54494D455230004E52465F544C
:1055D000494D455231004E52465F54494D45523275
:1055E000004E52465F5341414443004E52465F5085
:1055F000574D30004E52465F50574D31004E524687
:105600005F50574D32004E52465F50574D33004E5B
:1056100052465F574454004E52465F495043004E35
:1056200052465F564D43004E52465F465055004E1F
:1056300052465F45475531004E52465F4547553209
:10564000004E52465F4450504943004E52465F4719
:1056500050494F544531004E52465F524547554CD4
:1056600041544F5253006D757465785F696E69746B
:105670002063616C6C65642077697468204E554CBA
:105680004C20706172616D6574657200436F756C5A
:1056900064206E6F7420616C6C6F63617465206D43
:1056A00075746578206265666F726520696E6974CD
:1056B00069616C697A696E6700464C4153485F3096
:1056C000005352414D5F3000554152545F31004507
:1056D00052524F523A2043616E6E6F742066756C61
:1056E00066696C6C204558545F4150492072657161
:1056F000756573742E0D0A005741524E494E473A54
:10570000204F7074696F6E616C204558545F415032
:10571000492072657175657374206E6F74206675AB
:105720006C66696C6C65642E0D0A0048575F4343D4
:105730003358585F300076322E342E302D6E63731E
:1057400032002A2A2A20426F6F74696E67205A65D8
:1057500070687972204F53206275696C64202573DC
:10576000202573202A2A2A0A006D61696E00000034
:105770000000000083410000100100200100000033
:105780002401002001000000380100200100000079
:105790004C010020010000009D4A000000000000B4
:1057A00000C2010000010300000000000000000032
:1057B0000000000000C20100000103000000000022
:1057C000000000000090D00354000020540000208E
:1057D00094000020A00000209800002090000020ED
:1057E0006400002000000000E13600005C0800209A
:1057F00001000000653700004137000085370000D8
:1058000021370000B400002078000020AC00002008
:1058100000000000A400002060080020010000003B
:10582000640800200100000068080020010000005A
:1058300075550000EC500000D85000007C0200209C
:10584000C85600005C520000405200003C0000209E
:10585000AE530000545200004052000028000020C7
:10586000B553000000000000000000000000000030
:105870002B570000000000000000000000000000A6
:1058800000000000100100201001002000000000B6
:10589000000000000F00000024010020240100206F
:1058A00000000000000000000F0000003801002090
:1058B0003801002000000000000000000F00000080
:1058C0004C0100204C0100200000000000000000FE
:1058D0000F000000FFFFFFFFFFFFFFFFFFFFFFFFC5
:1058E00000000000000000000000000000000000B8
:1058F00000000000000000000000000000000000A8
:105900000000000000000000000000000000000097
:105910000000000000000000000000000000000087
:107FE0007FE97FE9F9F7BAB87FE97FE9FCF725BCBB
:107FF0007FE97FE9F9F75AB80000000000000000AF
:10C00000A812012051DE00008B12010081DE000029
:10C0100081DE000081DE000081DE000081DE0000A4
:10C02000000000000000000000000000C9DB00006C
:10C0300081DE00000000000071DB000057120100EB
:10C0400011DE000011DE000011DE000011DE000034
:10C0500011DE000011DE000011DE000011DE000024
:10C0600011DE000011DE000011DE000011DE000014
:10C0700011DE000011DE000011DE000011DE000004
:10C0800011DE000011DE000011DE000011DE0000F4
:10C0900011DE000011DE000011DE000011DE0000E4
:10C0A00011DE000011DE000011DE000011DE0000D4
:10C0B00011DE000011DE000011DE000011DE0000C4
:10C0C00011DE000011DE000011DE000011DE0000B4
:10C0D00011DE000011DE000011DE000011DE0000A4
:10C0E00011DE000011DE000011DE000011DE000094
:10C0F00011DE000011DE000011DE000011DE000084
:10C1000011DE000011DE000011DE000011DE000073
:10C1100011DE000011DE000011DE000011DE000063
:10C1200011DE000011DE000011DE000011DE000053
:10C1300011DE000011DE000011DE000011DE000043
:10C1400011DE000000000000000000000000000000
:10C1500000000000000000000000000000000000DF
:10C1600000000000000000000000000000000000CF
:10C1700000000000000000000000000000000000BF
:10C1800000000000000000000000000000000000AF
:10C19000000000000000000000000000000000009F
