:10C00000A80A0120ADDC0000EF100100DDDC00001B
:10C01000DDDC0000DDDC0000DDDC0000DDDC00003C
:10C0200000000000000000000000000025DA000011
:10C03000DDDC000000000000CDD90000BB100100D5
:10C040006DDC00006DDC00006DDC00006DDC0000CC
:10C050006DDC00006DDC00006DDC00006DDC0000BC
:10C060006DDC00006DDC00006DDC00006DDC0000AC
:10C070006DDC00006DDC00006DDC00006DDC00009C
:10C080006DDC00006DDC00006DDC00006DDC00008C
:10C090006DDC00006DDC00006DDC00006DDC00007C
:10C0A0006DDC00006DDC00006DDC00006DDC00006C
:10C0B0006DDC00006DDC00006DDC00006DDC00005C
:10C0C0006DDC00006DDC00006DDC00006DDC00004C
:10C0D0006DDC00006DDC00006DDC00006DDC00003C
:10C0E0006DDC00006DDC00006DDC00006DDC00002C
:10C0F0006DDC00006DDC00006DDC00006DDC00001C
:10C100006DDC00006DDC00006DDC00006DDC00000B
:10C110006DDC00006DDC00006DDC00006DDC0000FB
:10C120006DDC00006DDC00006DDC00006DDC0000EB
:10C130006DDC00006DDC00006DDC00006DDC0000DB
:10C140006DDC0000000000000000000000000000A6
:10C1500000000000000000000000000000000000DF
:10C1600000000000000000000000000000000000CF
:10C1700000000000000000000000000000000000BF
:10C1800000000000000000000000000000000000AF
:10C19000000000000000000000000000000000009F
:10C1A000000000000000000000000000000000008F
:10C1B000000000000000000000000000000000007F
:10C1C000000000000000000000000000000000006F
:10C1D000000000000000000000000000000000005F
:10C1E000000000000000000000000000000000004F
:10C1F000000000000000000000000000000000003F
:10C20000DEE61E284CBBCE8F025B00003C00000027
:10C21000CC6900000100000000C0000000C0000068
:10C22000FFFF02910000000000000000000000007D
:0CC2300000000000000000000000000002
:10C23C0053B94AB9002908BF00281CBF4FF0FF3181
:10C24C004FF0FF3000F070B9ADF1080C6DE904CE81
:10C25C0000F006F8DDF804E0DDE9022304B07047D5
:10C26C002DE9F04F099E04468946002B40F083804F
:10C27C008A42154645D9B2FA82F24AB1C2F1200778
:10C28C0001FA02F39540944020FA07F747EA0309B4
:10C29C004FEA154E230C1FFA85F8B9FBFEFC0EFB7A
:10C2AC001C990CFB08F143EA094399420AD9EB1893
:10C2BC002CBF01200020994202D9002800F01D81DA
:10C2CC000CF1FF3C591AA3B2B1FBFEF00EFB10119E
:10C2DC0000FB08F843EA0144A04505D92C1902D209
:10C2EC00A04500F20E810138A4EB080440EA0C4092
:10C2FC0000271EB1D4400023C6E900433946BDE8EF
:10C30C00F08F002A51D0B2FA82F2002A40F0AF80AE
:10C31C00491B4FEA154E1FFA85F80127230CB1FB78
:10C32C00FEFC0EFB1C1108FB0CF043EA0143984287
:10C33C000AD9EB182CBF01210021984202D90029FF
:10C34C0000F0D7800CF1FF3C191AA3B2B1FBFEF040
:10C35C000EFB101108FB00F843EA0144A04505D977
:10C36C002C1902D2A04500F2C1800138A4EB0804BC
:10C37C0040EA0C40BDE78B4208D9002E74D0002750
:10C38C00C6E9000138463946BDE8F08FB3FA83F7A9
:10C39C0067B98B42C0F0A480824240F2A18038463B
:10C3AC00002EABD0C6E90049A8E7FFDEC7F1200597
:10C3BC00BB4002FA07FC01FA07F4EA4020FA05F840
:10C3CC00E94000FA07FE1A4348EA04044FEA12480F
:10C3DC00200C1FFA82F9B1FBF8FA08FB1A110AFBC0
:10C3EC0009FB40EA01418B450AD951182CBF0123A6
:10C3FC0000238B4502D9002B00F088800AF1FF3A0C
:10C40C00A1EB0B01A4B2B1FBF8F008FB101100FB7F
:10C41C0009F944EA0141894504D9511801D28945E9
:10C42C007BD8013840EA0A40A1EB0901A0FB0C893A
:10C43C00494544464B4602D306D1C64504D2013881
:10C44C00B8EB0C0469EB0203002E5DD0BEEB0402CA
:10C45C0061EB030101FA05F522FA07F3F940002715
:10C46C001D43C6E9005149E73746304646E7C2F15D
:10C47C002000954001FA02F721FA00F34FEA154E1D
:10C48C0024FA00F11FFA85F894403943B3FBFEF00F
:10C49C000F0C0EFB103300FB08FC47EA03439C45D2
:10C4AC0007D9EB182CBF012700279C4500D98FB367
:10C4BC000138A3EB0C0389B2B3FBFEF70EFB173369
:10C4CC0007FB08FC41EA03418C4504D9691801D2E9
:10C4DC008C4525D8013FA1EB0C0147EA00471DE72D
:10C4EC00841A61EB03030120994659E702382C4466
:10C4FC003CE7ACF1020C2B4426E7ACF1020C2B44CC
:10C50C00E0E602382C44EFE63746F7E6AAF1020AD9
:10C51C00114475E702382B44CBE70238114481E70C
:10C52C00023F2944D7E700BF704700BF004870475F
:10C53C00981A0100D72310B58CB08DF807300DF187
:10C54C00070302460293002001230A910221CDE940
:10C55C00080302A8CDE90403039308ABCDE9063127
:10C56C000B91D368516818680431836804AA1C685D
:10C57C0006ABA047024680B101234FF000000849EA
:10C58C0063F30700074B5B1ADB0863F38F10064954
:10C59C00B82304F0B8FC6FF0040210460CB010BDC8
:10C5AC00E41901001C1A0100701C010010B51314D1
:10C5BC0086B08DF8053001AB02930423039302ABD4
:10C5CC00049301238DF8041052BA41680593C36893
:10C5DC00ADF80620044604AA0431186804F058F992
:10C5EC00024698B101234FF000000C4963F3070099
:10C5FC000B4B5B1ADB0863F38F100A494FF4D473AF
:10C60C0004F081FC6FF0040006B010BD204604F06D
:10C61C0031F9002818BF6FF00400F5E7E4190100A8
:10C62C001C1A0100701C01002DE9F04FB1F1000A39
:10C63C0089B0064617461D4659DBD0F804800AEB34
:10C64C000302D8F82010914251D304F00BF94FF0AB
:10C65C0058094FF0040B002D39D0B8F82A20716816
:10C66C00544204EA0A04A4EB0A0414444FEA2A4292
:10C67C008DF805209AFA9AF2ADF8062004AAAC427D
:10C68C0002924FF0020228BF2C46F0688DF80490FD
:10C69C0001AB0392043102AA0068CDE9043BCDE959
:10C6AC00067404F0F5F80246C0B101234FF0000007
:10C6BC00104963F30700104B5B1ADB0863F38F1010
:10C6CC000E494FF4A27304F01EFC6FF004053046C3
:10C6DC0004F0C4F8284609B0BDE8F08F304604F0E9
:10C6EC00C9F80028F1D12744A2442D1BB3E76FF001
:10C6FC001205EFE7E41901001C1A0100701C01007F
:10C70C0030B587B00DF1070302930123154602AA39
:10C71C008DF80710CDE9042341680393C36804AA7C
:10C72C000431186804F0B4F80446A8B101234FF0A2
:10C73C0000000B4A63F307000A4B0B499B1ADB08FA
:10C74C0063F38F10224640F2172304F0DCFB6FF0EA
:10C75C000404204607B030BD284604F0A3FFF8E7D8
:10C76C00E41901001C1A0100701C01002DE9F04FA6
:10C77C0001234668C76804464FF00000674D63F319
:10C78C000700674B93B0ED1AC5F3C90565F38F101D
:10C79C00644904F0B8FB634804F011FA306803F004
:10C7AC0057F9386070B90123326863F3070065F3F9
:10C7BC008F105D4904F0A7FB6FF01206304613B0E2
:10C7CC00BDE8F08F306980B103F042F9786030B980
:10C7DC00012363F3070065F38F103269E9E7337DBA
:10C7EC003B73737D7B730023BB60204604F03AF8E7
:10C7FC00F28DAB212046FFF783FF6668002106F11E
:10C80C00310305939F238DF81B300DF11B03089307
:10C81C000123099301230DF12008CDE90E13CDE975
:10C82C000A8302234FF0030A0D93E3680DF11C09F0
:10C83C000DF1380BCDF84090CDF844A0CDF830B0C8
:10C84C00186883680AAA1B68311D1F460CABB847D1
:10C85C00024668B101234FF0000063F30700882300
:10C86C0065F38F10314904F04EFB6FF0040621E0A4
:10C87C0052464946059804F06BFCF8B101234FF081
:10C88C00000063F3070096F8333065F38F100393C1
:10C89C0096F832309DF81C20029396F831302449DA
:10C8AC0001939DF81E306FF0120600939DF81D3019
:10C8BC0004F029FB204603F0D1FF7FE71D4B4146D6
:10C8CC000A930AAB0C9304230D930CAB0E93012328
:10C8DC0020460F93FFF72EFE06460028EAD1BDF83E
:10C8EC002030DB07E6D46168E3685A4604311868E7
:10C8FC0003F0CEFF024640B101234FF0000063F37A
:10C90C00070065F38F10EA23ACE7204603F0B2FF73
:10C91C00002818BF6FF00406CCE700BF1C1A0100FA
:10C92C00E4190100C51C0100D61C0100701C01009B
:10C93C00E51C01003D2A80A62DE9F0410D1E86B0B4
:10C94C0080461446C0F294804768AB183A6A9A4203
:10C95C00C0F08E807B8D95FBF3F203FB1252002A04
:10C96C0040F08980B4FBF3F203FB1243002B40F040
:10C97C00828003F077FF3B6AA34246D13F4BD8F845
:10C98C000410019301AB02930423039302AB0493B1
:10C99C0001230593D8F80C3004AA0431186803F06D
:10C9AC0077FF0246C0B101234FF00000344963F316
:10C9BC000700344B6FF004065B1ADB0863F38F102F
:10C9CC0031494FF4C17304F09EFA404603F046FF20
:10C9DC00304606B0BDE8F081404603F04BFF061E22
:10C9EC0018BF6FF00406F0E77B6AA34211D8013B35
:10C9FC002B420ED12A467C214046FFF7D7FD064636
:10CA0C007B6A1D44E41A002EDFD1002CECD12646A3
:10CA1C00DBE73B8DA3420AD8013B2B4207D12A46C8
:10CA2C0050214046FFF7C2FD3B8D0646E9E77B8D62
:10CA3C00A3420AD8013B2B4207D12A46812140460A
:10CA4C00FFF7B4FD7B8D0646DBE701234FF00000BA
:10CA5C000B4A63F307000B4B0C499B1ADB0863F37F
:10CA6C008F1022462B4604F04EFA6FF01506ACE7F9
:10CA7C006FF01206ACE76FF01506A9E7C794809A21
:10CA8C00E41901001C1A0100701C0100981C010023
:10CA9C00F0B500298DB0054642DB4668CC18376AE4
:10CAAC00A7423DD301240F14CDE90A2349BA02ABA6
:10CABC00ADF80610CDE9043401A908AB8DF805706A
:10CACC000291069304210223002707938DF804405A
:10CADC000391CDE9087103F0C5FEEB681868836813
:10CAEC0004AA1C68311D06ABA0470446284603F077
:10CAFC00B5FE94B101234FF000000B4A63F307001D
:10CB0C000A4B0B499B1ADB0863F38F10224640F249
:10CB1C00211304F0F8F96FF0040420460DB0F0BDB9
:10CB2C006FF01204F9E700BFE41901001C1A0100B0
:10CB3C00701C010038B51D491D4804F040F81D4813
:10CB4C0002F086FF044628B9BDE8384019491A4856
:10CB5C0004F035B8102103F0EDFE1021204603F04F
:10CB6C00DEFE0021204603F0E5FE0021204603F006
:10CB7C00D6FE1F21204603F0DDFE20461F2103F0C8
:10CB8C00CEFE0A4D0A4C2946204604F018F8002126
:10CB9C004FF4004003F0ECFB2946204604F00FF85C
:10CBAC0000214FF4004003F0E3FBECE7441D0100CF
:10CBBC00561D01002E1D01006E1D01000B68013376
:10CBCC000B60014B1B681847740001202DE9F04FD6
:10CBDC0087B00F461946109B0646142510469846FA
:10CBEC009DF844B09DF848A01C4C4FEAE37950EAFC
:10CBFC0001031AD1142D08BF3023139C18BF013523
:10CC0C002C4408BF8DF81430152C17D0153C002C73
:10CC1C0016DC1DF8050039460135B047152DF8D145
:10CC2C00002C15DC07B0BDE8F08F42464B46FFF7F1
:10CC3C00FFFAA35C0DF80530013DD8E70024E8E7C6
:10CC4C00BBF1000FE5D039465046B047013CDEE75A
:10CC5C0039465046B047013CE2E700BF841D010055
:10CC6C00014B1860704700BF74000120002307B50A
:10CC7C000246019303480B4601A903F08CFE03B056
:10CC8C005DF804FBC9CB00002DE9F84FB0F8189003
:10CC9C00044619F008080DD001290CBF49F0100901
:10CCAC0049F02009A0F8189082F31188BFF36F8F18
:10CCBC00BDE8F88F09F00709022907D1204603F0D7
:10CCCC008BFF0028F0D00128238B4AD16769238B76
:10CCDC00002F15DA2568C4E9008823F0070343F018
:10CCEC00010323830026238B03F0070ACA4502D0D5
:10CCFC00A168002956D10DB9002E6DD0002152E04B
:10CD0C0003F00701481F01281CD823F0070306294C
:10CD1C0025689BB2C4E900880AD13DB12846618BD5
:10CD2C000068013189B20028FAD1618343F0020313
:10CD3C002383204603F050FF0028D3D0238B43F0ED
:10CD4C002003CEE704290AD123F0070399B22183EB
:10CD5C00204603F041FF10B141F020012183002552
:10CD6C00C0E7032809D1216923F007030E6843F0BB
:10CD7C000603002523832F46B5E7042806D1216935
:10CD8C0023F007034E6843F00403F2E7052806D1AD
:10CD9C00216923F007038E6843F00503E9E70025BA
:10CDAC002E46E8E7012143F00803238382F3118820
:10CDBC00BFF36F8FF9B985BB16B121492046B04737
:10CDCC004FF02003EFF3118283F31188BFF36F8FC1
:10CDDC00238B23F008032383238BD90627D501212A
:10CDEC0023F010032383B4F8189009F007090029E5
:10CDFC007FF462AF58E7A1680029DCD0D1F800902D
:10CE0C00D1F804B03B4652462046D847B9F1000F42
:10CE1C00D1D04946D9F80090F2E7D5F800902946D0
:10CE2C003B465246204603F0F3FE4D46C3E713F053
:10CE3C0020011EBF23F0200323830221D3E700BF70
:10CE4C00490C01004FF02002EFF3118382F311889B
:10CE5C00BFF36F8F0121044AC2F8401583F3118888
:10CE6C00BFF36F8F002070470090034020B1034B3D
:10CE7C00800143F001031847704700BF901A01006E
:10CE8C002DE9F04F124B85B01B6881468A46174638
:10CE9C009847002680460F4C0F4D2D1B2D11AE428E
:10CEAC0002DB05B0BDE8F08F63685B7963B1236882
:10CEBC000397D3F804B0BBF1000F05D0009753468D
:10CECC00424649462046D84701361034E7E700BFB2
:10CEDC0078000120341A0100441A0100034B044A63
:10CEEC004FF400401A6000F00FBA00BF7800012028
:10CEFC000B0F0100044A054B9B1AB1EBD30F34BF47
:10CF0C0052F8310000207047E4190100341A010076
:10CF1C00094B4268C31A1B11013310B5137101225E
:10CF2C004368064C5A712278196012B9044803F010
:10CF3C0045FA0123237010BD341A0100A00601200C
:10CF4C001404012070B50F4BD3E8EF5F6A1CC3E8E3
:10CF5C00E12F0029F8D12DB90B4C0C4E361B361194
:10CF6C00B54200DB70BD237B43B123685B6903B121
:10CF7C009847042200212046FFF7CAFF01351034E0
:10CF8C00EEE700BF30050120341A0100441A0100FD
:10CF9C00F8B50C4F3D784DB9FFF7D4FF0A4C0B4E4A
:10CFAC00361B3611B54202DB01233B70F8BD6368BA
:10CFBC005B791BB1236820461B69984701351034F7
:10CFCC00F0E700BFA1060120341A0100441A010049
:10CFDC000EB403B503AB53F8042B0146044801937C
:10CFEC0003F0D9FC002002B05DF804EB03B07047ED
:10CFFC003B0F01002DE9F04F11F0020485B00646FD
:10D00C0090469DF8387001F0010901F0080507D031
:10D01C0011F0440F37D11A463249FFF7D9FF0446B5
:10D02C00B9F1000F0AD0304B304953F82720304B60
:10D03C003046002A08BF1A46FFF7CAFF3DB12D4BF8
:10D04C002D4953F827203046FFF7C2FF0546B8F1AB
:10D05C00000F44D0012303FA07F7284B17F0100FE9
:10D06C00274F18BF1F46BDF840109DF83C00FFF736
:10D07C0041FF394602463046FFF7AAFF28442044B8
:10D08C0005B0BDE8F08F1F4A116831B31E4A4FF44A
:10D09C00616E14684FF47A7CB3FBF4F3B3FBF1F4D8
:10D0AC00B4FBFEF20EFB124E01FB14340CFB04F429
:10D0BC00B4FBF1FB4FF03C0A01FB1B440CFB04F4EA
:10D0CC00BEFBFAF3B4FBF1F1CDE901B10AFB13E1BC
:10D0DC0000910E49FFF77CFFA1E708469FE7084F38
:10D0EC00C1E700BFBC1D0100EC1A010009230100BF
:10D0FC00AE1D0100001B0100E11D0100B81D010067
:10D10C00B31D01003405012038050120C51D0100A7
:10D11C0038B50C46E107054603D5084A0849FFF720
:10D12C0057FFE20608D4A3062846BDE838404CBF9A
:10D13C0004490549FFF74CBF38BD00BFAE1D0100C7
:10D14C0009230100A5240100A42401002DE9F047C6
:10D15C009846089B0446DD060E46174605D49906EC
:10D16C004CBF29492949FFF733FF0025DFF8A4906C
:10D17C0045452ADB0025DFF8A080DFF8A090DFF81A
:10D18C0094A0BD422ED2725D49462046FFF720FF87
:10D19C000135102D1FD11E492046FFF719FF002520
:10D1AC00DFF87080DFF87890AF4227D9725D49467E
:10D1BC00A2F120035F2B28BF2E222046FFF708FF89
:10D1CC000135102D13D1BDE8F08749462046FFF7F5
:10D1DC00FFFE0135CCE76A07D3D151462046FFF755
:10D1EC00F7FECEE741462046FFF7F2FED0E76B078D
:10D1FC00DAD141462046FFF7EBFED5E74146204603
:10D20C00FFF7E6FEDCE700BFA5240100A424010023
:10D21C00A71D0100A51D0100A31D01009D1D0100FE
:10D22C00A91D01002DE9FF4111F007040646DDE9B7
:10D23C000A871D460BD0C1F38913C1F3C2010293B7
:10D24C00CDE90041134639460122FFF7D3FE434690
:10D25C002A4631460D4803F09EFB8CB9013D15F86A
:10D26C00013F5BB90A2C03D109493046FFF7B0FEE8
:10D27C00304604B0BDE8F04103F072BE1C46EEE748
:10D28C00224639463046FFF743FFF1E73B0F0100DA
:10D29C00AC1D01002DE9FF470E9E9846DDE90C758B
:10D2AC00C1F3891301F00709C1F3C2010293CDE95F
:10D2BC0000911346314601220446FFF79BFE42467D
:10D2CC00824610492046FFF783FE55B920464A4650
:10D2DC003146FFF71DFF204604B0BDE8F04703F0D0
:10D2EC003FBE102DA84628BF4FF0100839460096B7
:10D2FC00534642462046FFF729FF4744A5EB080555
:10D30C00E3E700BF0923010001230021074A10B500
:10D31C00074C1360A04204D801B11360054B186090
:10D32C0010BD40085B000121F4E700BF3805012067
:10D33C0040420F0034050120F8B50D460446064F57
:10D34C004618B44201D12846F8BD386814F8011BC0
:10D35C0083685B689847F4E750050120014803F0A7
:10D36C00FFBD00BF2C1B010008B5034802F070FB89
:10D37C00024B186008BD00BF071E010050050120BC
:10D38C001FB50F2002900798019006980090034853
:10D39C00FFF780FF05B05DF804FB00BF2C1B0100FC
:10D3AC0007B50F200190049800900348FFF73AFF4F
:10D3BC0003B05DF804FB00BF2C1B01002DE9F74FF7
:10D3CC001F4802F01DFB00231E4A00901FFA83F930
:10D3DC0052F829400133002CF8D11B4E184BDFF8C2
:10D3EC0070A0A6F80090009A1FFA84F842454546B2
:10D3FC0002D803B0BDE8F08F18211A6801FB05258F
:10D40C0012492A698A4201D10134ECE700270D49FF
:10D41C00BAB251F82210934651B12868019203F028
:10D42C008BFE0137019A064B0028F0D12AF81B809D
:10D43C004A4501BF3288511C31802AF81280E3E73B
:10D44C00540501203C1B010080060120371501000A
:10D45C008206012010B5074802F0FAFA064C074B79
:10D46C001860204601F000F92046FFF7F9FB002078
:10D47C0010BD00BF071E01008DD40000580501200F
:10D48C000A2838B50446074D04D1286883680D2155
:10D49C005B68984728688368E1B25B6898472046C8
:10D4AC0038BD00BF5805012070B505460C240D4849
:10D4BC000E462B1A9A100C4B40215343DBB25C43A3
:10D4CC0004F14003184403F066FD011E04DB074B16
:10D4DC0023445B689847002128463346BDE87040DA
:10D4EC00184700BF6C050120B76DDBB6601B01004F
:10D4FC002DE9F0410F4C104D031B9B105D43EBB21B
:10D50C000C255D43074605F140000E4620444021A2
:10D51C0003F05AFD011E08DB084B2C44C4E90E36FF
:10D52C00074B5B59BDE8F041184738463346BDE818
:10D53C00F04118476C050120B76DDBB637100100C0
:10D54C00601B010070B5002201210446052000F08B
:10D55C00A5FA052000F070FA0F4801F07BFF0F4B85
:10D56C00984215D103F0CDFFE6680D49304603F023
:10D57C0082FB00280BDB01253564E468084904F1C3
:10D58C001C0003F078FB002801DB0020E56470BD73
:10D59C006FF00400FBE700BF49D600000000AD0BA4
:10D5AC00781B010001460C2300224B43084870B540
:10D5BC00C4184033D4E90E561844A26303F022FD7C
:10D5CC002DB132462B46BDE870400248184770BD5D
:10D5DC006C0501204C03012008B54FF02003EFF33C
:10D5EC00118183F31188BFF36F8F114A136843F0D5
:10D5FC00020013F0010310600BD00E4AD2F80C3469
:10D60C00D2F80C2413F0010303D00B4803F0FAFCFE
:10D61C00012381F31188BFF36F8F23B1BDE808405C
:10D62C000020FFF7BFBF0120BDE8084001F022BF7A
:10D63C00BC05012000500040AC05012010B10128B0
:10D64C0004D07047034B1B6C5B0701D1FFF7AABFDB
:10D65C00704700BF6C050120074BD3E8EF2F22F079
:10D66C000201C3E8E01F0028F7D1D30702D4012040
:10D67C0001F032BF704700BFBC050120002301221E
:10D68C0010B588B0CDE906320193094B04AC01AA60
:10D69C00CDE90444CDE9023403F0EDFC002805DBB0
:10D6AC004FF480420023204602F0A8FE08B010BDC3
:10D6BC00491001002DE9F843012206463449D1E80E
:10D6CC00EF3FC1E8E02F0028F9D133B93149324896
:10D6DC004B60CB608A6003F0E1FA731E012B2CD8EF
:10D6EC00012E06D12D4BD3F81C3403F00303022B6F
:10D6FC0023D003F0D1FF18B9294B1B78002B40D154
:10D70C004FF02003EFF3118983F31188BFF36F8F70
:10D71C000124224D234FA846D5F81834D5F81824E7
:10D72C00D2030CD503F00303022B01D0012E06D13A
:10D73C001CB389F31188BFF36F8FBDE8F883BCB1BC
:10D74C00484600F00DFAD5F81835DBB2012BE3D1C1
:10D75C003A68002AE0D000223A603A68022220217E
:10D76C00C5F81825104AC2F88011104A1360D3E787
:10D77C000021212002F0FCFDE5E70223C8F8043368
:10D78C00DBE70222054B0446C3F808238146C0E7B9
:10D79C00C00501205C0501208805012000500040D7
:10D7AC00A50601200451004000E100E008500040B3
:10D7BC00821C084B22F07F42C3F84025D3F8042585
:10D7CC00904200D17047D3F80405821C22F07F42AE
:10D7DC00F2E700BF005001400022074B1A601B68A3
:10D7EC00064A074BD3F840051368C01A20F07F4057
:10D7FC000344136002F08EBF40510140C405012068
:10D80C000050014038B500244FF400120E4D0F4B60
:10D81C00C5F808451C601B680D4B0121C3F880211D
:10D82C004FF480332246C5F80433152000F036F946
:10D83C00152000F001F90123064A022013602B6029
:10D84C00FFF738FF204638BD0050014040510140E1
:10D85C0000E100E008500140F8B52D4B2D4CD3F8F9
:10D86C0004252D4BB0F1FF3F08BF20461968521A12
:10D87C0022F07F43120238D4013820EAE070A04233
:10D88C00A8BF204601331844A04294BF0C180C19B1
:10D89C004FF4803000261E4A204DC2F80803D2F8FF
:10D8AC000415D2F840352E605B1A23F07F432F68A5
:10D8BC00012B21F07F47C2F84075C2F8440304D114
:10D8CC000F2003F0EFFE2E602B684FF40012144B68
:10D8DC00C3F880210E4BD3F80405221A22F07F42A4
:10D8EC00012A04D1FFF764FF0BE00020CAE724F003
:10D8FC007F42C3F84025D3F80405241A023C2302C6
:10D90C00F0D44FF48032024BC3F80423F8BD00BFAF
:10D91C0000500140FFFF7F00C40501204051014031
:10D92C0000E100E04FF02002EFF3118382F3118845
:10D93C00BFF36F8F064AD2F80405064A1268801AA4
:10D94C0020F07F4083F31188BFF36F8F704700BFC7
:10D95C0000500140C40501204FF02003EFF3118269
:10D96C0083F31188BFF36F8F0649074B0868D3F810
:10D97C00043582F31188BFF36F8F1B1A23F07F439A
:10D98C0018447047C405012000500140094A0A4957
:10D99C00936809689867D96708494B6843F08053C6
:10D9AC004B60002383F31188BFF36F8F9368D86F9C
:10D9BC00704700BF40060120581C010000ED00E03C
:10D9CC0013498A684FF038001044EFF3098C80E853
:10D9DC00F01F202080F31188BFF36F8F0D4F4FF095
:10D9EC0000664A6A8A603E60906F0023936780F3FA
:10D9FC00118802F1380090E8F01F8CF3098802F1CD
:10DA0C00000004B503F065FBBDE80440704700005E
:10DA1C004006012004ED00E01EF0040F0CBFEFF3F4
:10DA2C000880EFF30980816911F8021C0229FFD0EC
:10DA3C0001B503F052FB01BD43B2002B08DB012200
:10DA4C0000F01F0002FA00F0024A5B0942F82300C2
:10DA5C00704700BF00E100E043B2002B0DDB012258
:10DA6C0000F01F0002FA00F05B09044A203342F870
:10DA7C002300BFF34F8FBFF36F8F704700E100E0BF
:10DA8C00054B420953F82220012300F01F0003FA32
:10DA9C0000F01040704700BF00E100E043B2002BE3
:10DAAC0001F10101A8BF03F160434FEA4111B8BF76
:10DABC00054BC9B2ABBF03F5614300F00F0083F80F
:10DACC0000131954704700BF14ED00E042F8203CDD
:10DADC00009B0B4942F81C3C019B21F0010142F8D0
:10DAEC00183C029B42F8081C42F8143C4FF080731F
:10DAFC0042F8043C0023203A82658367704700BFDC
:10DB0C003B0D0100044608B50E46154600F0F2FB2D
:10DB1C00084B9C60A36E83F30B88284686F3098818
:10DB2C00002163B681F31188BFF36F8F00220023AD
:10DB3C0003F0FDF840060120014910220A607047ED
:10DB4C0010ED00E072B6404080F31188BFF36F8F88
:10DB5C00BFF34F8F30BF62B6BFF36F8F704700BFFC
:10DB6C0072B6494081F3118820BF80F3118862B6E8
:10DB7C00704700BF73B506460C46002936D001230A
:10DB8C004FF000001D4D63F307001D4BED1A8B6821
:10DB9C00C5F3C9050093D1E9002365F38F1019492A
:10DBAC0003F0B1F901234FF0000063F30700636940
:10DBBC0065F38F100093D4E90323134903F0A3F901
:10DBCC0001234FF0000063F3070065F38F10E26947
:10DBDC000E4903F098F94FF00000012363F307009E
:10DBEC0065F38F10A2690A4903F08DF9214630467E
:10DBFC0002B0BDE8704001F053BF00BF041A010031
:10DC0C00E41901006C1E01009B1E0100CA1E0100DC
:10DC1C00D91E010030BFFFF7FDBF00BF0E4A08B58B
:10DC2C000E4B22F07F029A60BFF34F8FBFF36F8FC2
:10DC3C00D3F8882022F47002C3F88820EFF3148301
:10DC4C0023F0040383F3148801F0B4FF01F0BCFF4C
:10DC5C0000F018FB01F0F6FF00C0000000ED00E042
:10DC6C0001B572B60B4A106A00281EBF0021116262
:10DC7C0003F05EFC62B6EFF30580A0F110004FEAF2
:10DC8C00C0000549014409C99847BDE80140034952
:10DC9C000847000040060120DC17010051E200009B
:10DCAC0003F02BF9202080F3118808484FF4006111
:10DCBC00401880F30988EFF314800221084380F3A5
:10DCCC001488BFF36F8FFFF7A9FF0000E80B01204A
:10DCDC00EFF30880EFF3098101B5724600F0B4F957
:10DCEC0001BD00BFF8B5012307464FF00000374CCB
:10DCFC0063F30700364B0E46E41AC4F3C90464F30D
:10DD0C008F10344903F0FFF8334B9B6ADB0609D5BF
:10DD1C004FF00000012363F3070064F38F102F49C9
:10DD2C0003F0F1F82C4B9B6A1D0709D54FF000004E
:10DD3C00012363F3070064F38F10294903F0E3F820
:10DD4C00254DAB6A98071CD501234FF0000063F3F7
:10DD5C000700244964F38F1003F0D5F86A6BAB6AA3
:10DD6C0019060ED54FF00000012363F3070064F38E
:10DD7C008F101D4903F0C7F81FB1AB6A23F0800365
:10DD8C00AB62154B9B6ADA0709D54FF000000123F3
:10DD9C0063F3070064F38F10144903F0B4F80E4BCF
:10DDAC009B6A9B0609D54FF00000012363F3070023
:10DDBC0064F38F100E4903F0A6F80020064B9A6A04
:10DDCC009A6A42F0FF029A623070F8BD041A0100A0
:10DDDC00E41901008F1F010000ED00E0A51F0100F8
:10DDEC00D81F0100EB1F01000320010019200100C6
:10DDFC0038200100F8B5012307464FF000003D4CD8
:10DE0C0063F307003C4B0E46E41AC4F3C9043B49C8
:10DE1C0064F38F1003F077F8394B9B6AD90409D55A
:10DE2C004FF00000012363F3070064F38F103549B2
:10DE3C0003F069F8324B9B6A1A0509D54FF00000C4
:10DE4C00012363F3070064F38F102F4903F05BF891
:10DE5C002B4DAB6A9B051CD501234FF0000063F3DF
:10DE6C00070064F38F10294903F04DF8AA6BAB6AD5
:10DE7C0018040ED54FF00000012363F3070064F380
:10DE8C008F10234903F03FF81FB1AB6A23F4004312
:10DE9C00AB621B4B9B6A590509D54FF0000001235F
:10DEAC0063F3070064F38F101A4903F02CF8144B3A
:10DEBC009A6AD20511D54FF000000123164963F37D
:10DECC00070064F38F1003F01EF800200C4A936ACD
:10DEDC0043F47F4393623070F8BD9B6A9B04F4D586
:10DEEC004FF00000012363F3070064F38F100B491C
:10DEFC00E9E700BF041A0100E4190100071F010043
:10DF0C0000ED00E01D1F0100D81F01002E1F0100B5
:10DF1C00471F01005C1F0100771F01003820010022
:10DF2C0038B54FF0000001233C4C63F307003C4B29
:10DF3C003C49E41AC4F3C90464F38F1002F0E3FF04
:10DF4C00394B9B6A9B0109D54FF00000012363F309
:10DF5C00070064F38F10354902F0D5FF324B9B6AF2
:10DF6C00DD0109D54FF00000012363F3070064F3D2
:10DF7C008F102F4902F0C7FF2B4B9D6A15F48015AB
:10DF8C000AD001234FF0000063F3070064F38F10F5
:10DF9C00284902F0B8FF0225234B9B6A180309D5C8
:10DFAC004FF00000012363F3070064F38F10224944
:10DFBC0002F0A9FF1C4B9B6A590309D54FF00000D6
:10DFCC00012363F3070064F38F101C4902F09BFFDD
:10DFDC00154B9B6A9A0309D54FF00000012363F39C
:10DFEC00070064F38F10164902F08DFF0E4B9B6AED
:10DFFC00DB0309D54FF00000012363F3070064F342
:10E00C008F10104902F07FFF074A2846936A6FEA87
:10E01C0003436FEA1343936238BD00BF041A010037
:10E02C00E41901006720010000ED00E07F200100F1
:10E03C0092200100AC200100D6200100F420010048
:10E04C0019210100332101002DE9F043694B8BB0FC
:10E05C00D3F80480064689461446C8F30807002501
:10E06C0085F31188BFF36F8F02F07F43B3F17F4FBD
:10E07C0028D1D00726D4510603D4220712D4012567
:10E08C0012E001234FF000005B4A63F307005B4B87
:10E09C005B49D21AD20862F38F1002F034FF14F0ED
:10E0AC00040501D04E46002500238DF80730FB1ED9
:10E0BC00092B00F28280DFE803F0076B6F4E808043
:10E0CC00808080732E46EFE701234FF000004FF065
:10E0DC00000863F30700484F484B4A49FF1AC7F33F
:10E0EC00C90767F38F1002F00EFF424B8DF80780C3
:10E0FC00DC6A14F002040BD04FF0000001234249FB
:10E10C0063F3070067F38F1002F0FDFE002425E097
:10E11C00DB6A5B0022D501234FF0000063F307009C
:10E12C0067F38F10394902F0EEFE394B1B782BB197
:10E13C0001200DF10701FFF7D5FD0EE0354B1B78E3
:10E14C002BB101200DF10701FFF754FE05E0324B16
:10E15C001B889BB213B1FFF7E3FE04469DF8073012
:10E16C009BB92022314602A803F002F8099B002D2E
:10E17C003AD0C3F3080222B96FEA53236FEA432360
:10E18C00099302A92046FFF7F5FC0BB0BDE8F0831C
:10E19C000DF107010020CEE70DF107010020D3E7B8
:10E1AC0001234FF00000154A63F30700124B1B4983
:10E1BC009B1ADB0863F38F10A6E701234FF00000D6
:10E1CC000D4A63F307000D4B1549D21AD20818F407
:10E1DC00F87F62F38F10A7F11003124A08BF0A46AA
:10E1EC00114902F090FE91E723F4FF7323F0010331
:10E1FC00C6E700BF00ED00E0041A0100E4190100BD
:10E20C008C210100AF210100C6210100E721010092
:10E21C0028ED00E029ED00E02AED00E006220100E7
:10E22C005E210100732101003C220100044B5A695C
:10E23C0042F010025A615A6942F480625A61704786
:10E24C0000ED00E0044B9968586A884203D00349FA
:10E25C004FF080520A6070474006012004ED00E048
:10E26C00BFF34F8F0549064BCA6802F4E0621343B3
:10E27C00CB60BFF34F8F00BFFDE700BF00ED00E0A8
:10E28C000400FA05002320210348C2180133412B56
:10E29C0082F80013F9D1704700E100E010B5044694
:10E2AC0001F02EFF114B9B68A34207D1EFF30583BE
:10E2BC0083B10F4A536843F0805353604FF02003EF
:10E2CC00EFF3118083F31188BFF36F8FBDE810401B
:10E2DC0003F030B94FF02003EFF3118083F3118872
:10E2EC00BFF36F8FFFF752FBE8E700BF400601203A
:10E2FC0000ED00E010B50E4B88B002930D4B0E4CA8
:10E30C0003930E4B0E4A049302AB019301A82346D0
:10E31C00012100F04BF9002307930A4B0121E41A69
:10E32C0005A80593069400F04BF908B010BD00BF8A
:10E33C000000012000000000000004200600010085
:10E34C00000001202804012010B50B680C7A23F082
:10E35C001F0204F01F031A43CB68640923F01F0348
:10E36C00044943EA440343F001038860CA600B612B
:10E37C0010BD00BF90ED00E00F2810B5044612D977
:10E38C0001234FF00000094A63F30700084B0949C9
:10E39C009B1ADB08224663F38F1002F0B4FD6FF07A
:10E3AC001504204610BDFFF7CFFFFAE7E419010072
:10E3BC00FC190100992201002DE9F04F074688460F
:10E3CC0014460026584D85B046453DDA57F82630A0
:10E3DC00D3F80490B9F1000F59D0B9F11F0F22D91D
:10E3EC0019F01F0F1FD1D3F800A01AF01F0F1AD16C
:10E3FC00504602F098FE834609EB0A00013802F001
:10E40C0092FE834524D06FF0150B01234FF00000D2
:10E41C00464A63F30700464B46499B1ADB0863F3F5
:10E42C008F105A460CE001234FF000003F4A63F373
:10E43C0007003F4B40499B1A3246DB0863F38F10B1
:10E44C0002F061FD6FF01504204605B0BDE8F08FB9
:10E45C001BF1160FD9D0631E5B45D6DBC5F808B08F
:10E46C00E868C5F808B02B6957F8261020F01F0093
:10E47C0043F01F0AD1E900321A44984202F1FF39E5
:10E48C0018D1CA4505D15FFA8BF002F031FE013686
:10E49C009AE7C5F808B0EB6822F01F0203F01F03DF
:10E4AC001A43EA60E0B202F023FE10F1160FC9D055
:10E4BC00441CECE7C5F808B02A69013B23F01F03A4
:10E4CC0002F01F021343CA45E0B22B61EBD002F0FD
:10E4DC000FFE10F1160FB5D0C5F808B0EA689DF81C
:10E4EC0008300AF1FF3A62F304038DF808302B6907
:10E4FC009DF808205B0863F3471257F826308DF817
:10E50C000820D3E900231344009323F01F03534442
:10E51C00A3EB0903013023F01F036946C0B2039338
:10E52C00FFF72AFFC1E700BF90ED00E0E4190100FE
:10E53C00FC19010076220100532201000522034B35
:10E54C005A60BFF34F8FBFF36F8F704790ED00E0B1
:10E55C00BFF35F8F0022014B5A60704790ED00E0D3
:10E56C0070B50E4D2E68102E15D80024FFF7F0FF55
:10E57C000B4B0C4A1A63A64205D10B4B1E70FFF7CE
:10E58C00DDFF002070BD6968204601EB0411FFF728
:10E59C00DBFE0134EFE74FF0FF30F3E7841B0100A3
:10E5AC0090ED00E0AAFF4400A306012010B5034C37
:10E5BC002278FFF701FF207010BD00BFA3060120D9
:10E5CC002DE9F74F254C8A4680460027A1464FF08F
:10E5DC00140B234D57451ADAD8F804300193002B4D
:10E5EC0036D0D8F800100846009102F09CFDDDE909
:10E5FC00001306465818013802F095FD8642194A58
:10E60C0008D014235F436FF0150349F8073003B0AB
:10E61C00BDE8F08F16F1160F2660F8D01378B342D0
:10E62C00F5DD0BFB0793AE60AE60E868197B60F319
:10E63C00040119732969187B490861F34710187391
:10E64C00EB6823F01F0363602B6923F01F03236126
:10E65C000137143408F10C08BCE700BFC8050120D1
:10E66C0090ED00E0A3060120014B1860704700BF3D
:10E67C001C010120064B00F01F0003EB8000D0F8BA
:10E68C00003223F4403343EA0141C0F800127047D2
:10E69C000025844008B5094B1A786AB9012131204C
:10E6AC0019700521FFF7FAF93120FFF7C5F94FF082
:10E6BC000042034BC3F80423002008BDA40601202C
:10E6CC0000100340284B70B51340B3F5801F46680B
:10E6DC003BD007D8022B3AD0062B13D093B16FF056
:10E6EC00150031E0B3F5800F33D004D81F488342B6
:10E6FC00F5D1072306E01E4883422CD0B3F5A00FBA
:10E70C00EDD10323D00654BFC2F34015032582F488
:10E71C00807412F4007FC2F34020C4F3002406D0AE
:10E72C0012F4006F766818D001228A40B26040EA79
:10E73C00440040EA0323002001F01F010D4A43EA84
:10E74C008503803142F8213070BD0123DAE70423C0
:10E75C00D8E70223D6E70523D4E7520542BF0122AE
:10E76C008A40F260E3E700BF0600F00006001000EC
:10E77C000200400000258440F8B50D46416805F0C4
:10E78C001F04097AB2F5A03FC76844EA41140AD1C4
:10E79C00664804F01F01803150F82110C80707D5D6
:10E7AC006FF02200A1E0B2F5005FF96800F09E80E6
:10E7BC000121F868A9400143F96001217869A94059
:10E7CC00B2F5A03FBA690CBF08438843B3F5C02F1C
:10E7DC000CBF0A438A43B3F5802F4FF00003BA6194
:10E7EC003A69534E0CBF114322EA01017861396139
:10E7FC00D6F80423D2B203F5A27156F82110C1F356
:10E80C0004218C4277D122FA03F1C90773D5012276
:10E81C009A40D0434749D1E8EFCF0CEA000CC1E84D
:10E82C00EECFBEF1000FF6D19B0003F1804303F550
:10E83C004433D3F8101521F00101C3F81015C6F8B4
:10E84C00082320460021FFF715FFF868E84010F078
:10E85C0001004AD07869E84010F0010258D0BB6939
:10E86C00EB40DB074CD43B6923FA05F515F0010F9F
:10E87C0014BF01270227002301252E4A05FA03F1B4
:10E88C00D2E8EF0F40EA010CC2E8EECFBEF1000F68
:10E89C00F6D1D84010F0010034D19A0002F1804238
:10E8AC0002F54432D2F81055403325F4473525F49F
:10E8BC004075C2F8105524029B00D2F8105504F490
:10E8CC00F8549BB244EA074403F1804303F5443304
:10E8DC002C43C2F8104518601B68D2F8103543F071
:10E8EC000103C2F81035C6F80413F8BD0120A84086
:10E8FC0021EA000160E70133082B7FF47CAFA0E72D
:10E90C000327B8E70133082BB8D16FF01200ECE7FE
:10E91C003B69204623FA05F515F0010F0CBF0321C6
:10E92C000221FFF7A7FE1046DFE700BF0025844059
:10E93C0000100340F80501202DE9F0413A4D2E68F6
:10E94C00002E4CD001274FF00008384BDA68D3E981
:10E95C000510014322EA010235491B690C695C4030
:10E96C0022EA040472BB2A602B68002301251F468F
:10E97C0030483149D0F8042305FA03FC1CEA020F95
:10E98C000FD051F8232062B103F5A27250F8222067
:10E99C0041F82370C2F3042205FA02F2144351F831
:10E9AC0023200133082BE5D1DCB94EB1012500261B
:10E9BC001E4CE268D4E90510014322EA01020ABBAD
:10E9CC00BDE8F0813A4206D0002108F01F00FFF7A5
:10E9DC0051FE22EA070208F101087F00C2E7344623
:10E9EC00C3E7124B59680029DFD00D68134F8A68B2
:10E9FC00224002D04B6838469847002DD5D0294686
:10EA0C002D68F4E715420CD0236906F01F00F34083
:10EA1C0013F0010F0CBF03210221FFF72BFE22EA9A
:10EA2C00050201366D00CAE77C110340DC050120AC
:10EA3C00002584400010034000110340AC0301206A
:10EA4C0038B5C4680546A06440682346104A00F1F6
:10EA5C000C0100F0EBFD0F4B984211D001234FF04D
:10EA6C0000000D4A63F307000C4B0D499B1ADB08A1
:10EA7C0063F38F102A6802F046FA6FF00F0038BD6E
:10EA8C0001232046636502F042FC0020F7E700BF3B
:10EA9C0055EB00000000AD0BE4190100241A010035
:10EAAC00EC220100F0B5C56885B0EB6B6C6C7BB9E2
:10EABC009CB900222846114602F004FC6C6205F158
:10EACC00140001F07BFC002385F8503005B0F0BD3C
:10EADC00002C35D09C4228BF1C46A96B466879B1E6
:10EAEC0073B101F06043B3F1005F09D0082C28BF6B
:10EAFC00082405F158072246384602F039FB3946FE
:10EB0C00B36800919C4228BF1C46AB6BEC641BB1F4
:10EB1C00EB6B002B18BF234601932B6C02931BB19C
:10EB2C006B6C002B18BF23460022694630460393BA
:10EB3C0000F07CFE034B9842C8D06FF00404B8E799
:10EB4C001C46CAE70000AD0B037810B50C46002B31
:10EB5C0056D1CB6B83B1CA6C9A4225D901234FF0A5
:10EB6C000000284A63F30700274B28499B1ADB084F
:10EB7C0063F38F1002F0C7F9636C83B1E26C9A42B5
:10EB8C0028D901234FF000001E4A63F307001E4BE7
:10EB9C001E499B1ADB0863F38F1002F0B4F9A06CCA
:10EBAC00BDE81040FFF77EBF9B1ACB6363B9CB6AFD
:10EBBC00013BCB6263B18B6A03F108028A629A68EB
:10EBCC00DB688A63CB63D7E78B6B002BD4D0134401
:10EBDC00A363D1E79B1A636463B9636B013B636303
:10EBEC0063B1236B03F1080222639A68DB68226429
:10EBFC006364D4E7236C002BD1D013442364CEE799
:10EC0C0010BD00BFE4190100241A0100CE2201003E
:10EC1C002DE9F74FC46881460F4616461D4604F190
:10EC2C00040B4FF0FF324FF0FF33584601F0E6FB78
:10EC3C00D9F80C2013689F4200F0BB80BB88D80722
:10EC4C0018D501234FF00000884A63F30700884B66
:10EC5C0088499B1ADB0863F38F10D9F8002002F067
:10EC6C0052F96FF01504584601F0A8FB204603B08A
:10EC7C00BDE8F08F19070ED501234FF000007B4A39
:10EC8C0063F307007A4B7C499B1ADB0863F38F1004
:10EC9C0002F039F9E5E713F4C05F0CD001234FF013
:10ECAC000000724A63F30700714B74499B1ADB082E
:10ECBC0063F38F10ECE7C3F34513082B0CD001233F
:10ECCC004FF00000694A63F30700694B6C499B1ACB
:10ECDC00DB0863F38F10DBE739686A4B99420CD879
:10ECEC0001234FF00000614A63F30700604B664953
:10ECFC009B1ADB0863F38F10CAE7D9F8043017604E
:10ED0C000193BB68002B7ED0186800287BD093F849
:10ED1C0009801A7A18F0010F0CBF48F4B05888F427
:10ED2C0020680092D0F80CA0836842461B680099BA
:10ED3C00984758B901220099DAF800308A4018F047
:10ED4C00010F14BF13439343CAF80030019B196899
:10ED5C00BB88980703F0040264D5002A14BF032271
:10ED6C000222022AC3F3001360D0032A61D0012AC5
:10ED7C0001D143F00203C1F85435444A3B68934235
:10ED8C005AD9434A93425AD9424A93425AD9424A8F
:10ED9C0093425AD9414A93425AD902F5741202F558
:10EDAC001062934294BF4FF080434FF00043C1F880
:10EDBC002435012384F85030002E4CD0336872680F
:10EDCC00A362E2621A685B68A263E363002D47D01A
:10EDDC002B686A68236362631A685B6822646364E5
:10EDEC00002201216262204602F06CFA4846FFF7CD
:10EDFC0059FE4FF0FF3204F114004FF0FF3301F0D5
:10EE0C00FDFA646A2FE703234FF00000174A63F3FF
:10EE1C000700174B22499B1ADB0863F38F1002F093
:10EE2C0072F893E7003218BF01229AE743F004030B
:10EE3C00A1E743F006039EE74FF00073B7E74FF0EE
:10EE4C008063B4E74FF00063B1E74FF08053AEE757
:10EE5C004FF00053ABE7C4E90A66C4E90E66B5E7A8
:10EE6C00C4E90C55C4E91055BAE700BFE419010018
:10EE7C00241A01000C2301002E2301004D23010054
:10EE8C007023010047E801009F2301008FD003008D
:10EE9C001FA107003F420F007F841E00FF083D00AA
:10EEAC00D0230100024B0B6001231360704700BF9D
:10EEBC00FC05012000487047181C010070B50D4678
:10EECC00144602F02CFB21460646284602F082FA34
:10EEDC0000B3B5FBF6F306FB1353DBB9B4FBF6F04A
:10EEEC0006FB1040B0B9A64213D84FF0FF324FF0DA
:10EEFC00FF330A4801F082FA02F011FB064628465D
:10EF0C0000F06AFBA41B3544F9D1044801F056FA11
:10EF1C00204670BD6FF01500FBE700BF0406012012
:10EF2C0010B501220648114602F0AAFB02F0FAFACB
:10EF3C00044C206002F0F3FA6060002010BD00BFAA
:10EF4C0004060120FC050120F8B50E461946304692
:10EF5C0017461C4602F03EFA08B346EA040515F0C3
:10EF6C0003051CD1F4B14FF0FF324FF0FF330E48C4
:10EF7C0001F044FA24F00304A54206EB050009D184
:10EF8C000A4AD2F80034DB07FBD5074801F016FA21
:10EF9C000020F8BD795900F03BFB0435ECE76FF02D
:10EFAC001500F6E72046F4E7040601200090034024
:10EFBC00F0B54B79012B27D0032B22D110268B795E
:10EFCC00032B1ED1CC7924B1012C1AD143681B79A7
:10EFDC00BBB10A7912B1022A13D10E2247F61227BD
:10EFEC000B684568BB422D6863D029D8B3F5965F92
:10EFFC0062D014D8B3F5167F60D007D8B3F5967FDE
:10F00C005FD06FF0220053E00026D8E7B3F5966F7F
:10F01C005AD0B3F5166FF4D14FF41D233CE0B3F581
:10F02C00615F54D004D8B3F5165FEAD1334B33E0AB
:10F03C00B3F5964F4DD0B3F5E14FE2D1304B2BE009
:10F04C00B3F5E13F47D012D84DF6C027BB4245D0AF
:10F05C0005D8B3F5164FD4D14FF41D031CE0B3F50E
:10F06C00614F3ED0B3F5963FCBD1264B14E0B3F5B0
:10F07C00E12F39D008D8B3F5613F38D0224FBB42CD
:10F08C00BFD14FF0806307E0B3F5612F32D01F4F33
:10F09C00BB42B6D14FF08053C5F82435C368344316
:10F0AC002243043303C9C5F86C2583E80300002010
:10F0BC00F0BD4FF40003EFE7154BEDE74FF41C33B5
:10F0CC00EAE74FF4A033E7E74FF49E23E4E7114B54
:10F0DC00E2E7114BE0E74FF0EB73DDE74FF465032C
:10F0EC00DAE74FF46B03D7E74FF0E863D4E74FF060
:10F0FC006C73D1E74FF07063CEE700BF0050270070
:10F10C0000C0750000903A0190D0030040420F00FF
:10F11C0000B0130000F03A0000A04E00F8B50F68E4
:10F12C000E4601214FF0000C4368C5681C6807F0BF
:10F13C001F02264B9140C4F800C52860996003213A
:10F14C00803243F822107268511C1EBF02F01F015E
:10F15C00803143F821C0B168C4F80C754F1C18BF3E
:10F16C000027C4F814251EBF01F01F02803243F89B
:10F17C002270F7687A1C0CD04FF0010C07F01F02BC
:10F18C000CFA02FCC3F808C04FF0030C803243F8B1
:10F19C0022C0C4F80875C4F81015C1680431FFF713
:10F1AC0007FF88B9082201232B61C4F80025726877
:10F1BC00013209D0C4F810011435D4F81021C4F868
:10F1CC003455C4F838352360F8BD00BF00258440A1
:10F1DC0030B585B005466C46044B0FCB84E80F0068
:10F1EC0021462846FFF79AFF05B030BD501A0100A2
:10F1FC0030B585B005466C46044B0FCB84E80F0048
:10F20C0021462846FFF78AFF05B030BD601A010081
:10F21C002DE9F047C66801291D46346940F0A580E8
:10F22C001768A7424FD0D0F804E0012FDEF8003069
:10F23C0050D19EF8051000293BD0D3F80C15D3F80B
:10F24C0014C501F01F094A4907FA09FAD3F81085C9
:10F25C00D3F80845C1F808A04FF0030ABCF1FF3FF2
:10F26C0009F1800941F829A01FBF4FF000090CF0EB
:10F27C001F0C0CF1800C41F82C909EF804E01EF051
:10F28C00040F0CD04FF0010C04F01F040CFA04FC1A
:10F29C00C1F808C04FF0030C803441F824C01EF0B4
:10F2AC00020F1FBF002408F01F0808F1800841F866
:10F2BC0028400821C3F80015D3F81415013101D0EA
:10F2CC0001211960376115B1089B0021A847002066
:10F2DC00BDE8F087012CF5D1D3F84C1169B15C6015
:10F2EC00D3F844110029FBD00021C3F84C11D3F8FA
:10F2FC004C41C3F84411D3F844110021C3F8001554
:10F30C009EF805100029DDD04FF00209D3F80C85CA
:10F31C00D3F8141508F01F08B1F1FF3F18BF01F026
:10F32C001F01D3F81045D3F808C5114B18BF803115
:10F33C0008F1800843F8289018BF43F821909EF8F4
:10F34C0004E01EF0040F1FBF0CF01F014FF0020C65
:10F35C00803143F821C01EF0020F1FBF04F01F01C3
:10F36C000224803143F82140ACE71460ABE700BFC6
:10F37C000025844008B5FDF70BFE01234FF000007B
:10F38C00064A63F30700064B06499B1ADB0863F336
:10F39C008F1001F0B8FD0020FEF762FFE4190100A8
:10F3AC00EC1901002E2401002DE9F0430025214C1D
:10F3BC00214E54F8048CDFF8889085B0A84503D80A
:10F3CC00002005B0BDE8F083636A96E807001F686B
:10F3DC0001AB83E807000C221946384601F0B8FE51
:10F3EC0090B98FB1636A21691B681A6991420BD17C
:10F3FC009A69A169914207D8E169914204D962697D
:10F40C005B6932EA03030AD0276A67B10B4801F043
:10F41C00D6FB404080F311884FF0040002DFE36814
:10F42C0001351C44CAE7484601F0C9FB636A1F60FA
:10F43C00F5E700BF3CC20000701A01004B2401002C
:10F44C0074240100014B024A1A60704740030120EA
:10F45C000090D003044B1A7922B9012218601A715A
:10F46C000248704702487047140601200000AD0B9B
:10F47C000C00AD0B10B101281ED07047134BD3F804
:10F48C001824D3F8181411F4803F194610D002F048
:10F49C000302022A0CD1C3F8182500220C4B1A6067
:10F4AC0002221B68094BC3F8042301229A6070479F
:10F4BC000123C1F81835F0E70022064B1A601B68CF
:10F4CC00024BC3F804031860704700BF00500040A3
:10F4DC00045100400051004038B510B1012816D03D
:10F4EC0038BD0222012142F21075164CC4F80823D3
:10F4FC00154A10601268154A1160D4F81834DB03F1
:10F50C00EED5012001F0FBFF013DF6D1E8E700222A
:10F51C0042F210750E4B0B4CC4F808031A601B68B2
:10F52C000C4B1860D4F80C34D4F80C2403F0010301
:10F53C00D203D5D5002BD3D0012001F0E0FF013D43
:10F54C00F0D1CDE700500040045100400C50004079
:10F55C000051004004500040154B10B51A684AB1D8
:10F56C000020012218601B68124BC3F80823124BB1
:10F57C001B689847114B1A6882B100221A601B68ED
:10F58C000C4BD3F81824D3F8181402F00302012AF8
:10F59C004FF0020103D1C3F818159A6010BDC3F8DF
:10F5AC000813054B0120BDE810401B68184700BF2D
:10F5BC00005100400050004014060120045100404E
:10F5CC00044AD2F80834DB07FBD50160BFF35F8F28
:10F5DC00704700BF00900340C0F30B037BB90222BD
:10F5EC00084BC3F884254FF0FF320260D3F8002497
:10F5FC00D207FBD500220448C3F884257047034882
:10F60C00704700BF009003400000AD0B0A00AD0B2B
:10F61C00012310B5044CC4F88435FFF7D1FF002347
:10F62C00C4F8843510BD00BF009003402DE9F047AD
:10F63C00242405794C4E6C43371997F81CC0BCF147
:10F64C00000F40F08E8000687B600127325191F8EA
:10F65C00008091F80CE0454B08F01F04A740BEF168
:10F66C00010F94BFDF609F600127803443F8247042
:10F67C0091F801C0BCF1FF0F1FBF0CF01F04A74095
:10F68C00DF6003271CBF803443F824708F7808BFD9
:10F69C004FF0FF3CFF2F1FBF91F80E9007F01F0497
:10F6AC004FEA8909803418BF43F824904FF024099D
:10F6BC0009FB0569CC7808BF4FF0FF37FF2C89F8A0
:10F6CC001F4016D04FF0010A91F8049004F01F046B
:10F6DC000AFA04FAB9F1000F3AD0C3F80CA04FF0B3
:10F6EC00030A803443F824A0242303FB056383F826
:10F6FC001E908B68C0F80885C0F80CC5C0F8107552
:10F70C00C0F824354B7B003318BF0123BEF1020F28
:10F71C0021D0BEF1030F21D0BEF1010F01D143F076
:10F72C000203C0F854358B79C0F8C0350723C0F8F4
:10F73C0000351AB140F30730FEF77EF9242303FBA2
:10F74C00056500236B77012309482B77BDE8F0870B
:10F75C00C3F808A0C3E743F00403E2E743F0060351
:10F76C00DFE70448F2E700BF1C06012000258440B7
:10F77C000000AD0B0500AD0BF8B524230679284D20
:10F78C007343EF18EB580468C3B144F30730FEF72A
:10F79C0063F9244BC4F808337B7F7BB101236427C6
:10F7AC006361D4F8043123B9012001F0A8FE013FB4
:10F7BC00F7D12423002203FB06535A77002302219E
:10F7CC00C4F80035D4F80825174B02F01F0280321C
:10F7DC0043F82210D4F81025501C1EBF02F01F0253
:10F7EC00803243F82210D4F80C25511C1FBF022183
:10F7FC0002F01F02803243F82210242202FB065230
:10F80C00D27FFF2A1FBF022102F01F02803243F871
:10F81C002210242303FB065500232B77F8BD00BFD1
:10F82C001C060120520108000025844024232DE9E8
:10F83C00F0410579434E6B431446F2180F46517F45
:10F84C00864600297BD1F35823B114F0140F04BF62
:10F85C00012353774FF0240C97E80F000CFB056C39
:10F86C000CF10C0888E80F009CF81F30FF2B08D017
:10F87C0003F01F0201239CF81E109340324AB1B1D1
:10F88C009360396821B101F06043B3F1005F06D198
:10F89C00BA6872B102F06043B3F1005F09D024235F
:10F8AC0003FB0565002329486B77BDE8F081D36025
:10F8BC00E7E7DEF800307868C3F84415C3F848056C
:10F8CC00F968C3F834250022C3F83815C3F8182199
:10F8DC00D3F8182114F0010218BF0122C3F85025E7
:10F8EC0014F0020218BF012214F00801C3F84025DD
:10F8FC0004BF01221A6124226A43B258B2B919B961
:10F90C00D3F81821002AFBD0242303FB0565EB7FD9
:10F91C00FF2B07D003F01F020123A97F93400A4A53
:10F92C0011B1D3600A48C0E79360FBE7402214F0A2
:10F93C00040F14BFC3F80823C3F80423F2E70548E7
:10F94C00B3E700BF1C060120002584400A00AD0B64
:10F95C000000AD0B0B00AD0B0F4BD3F81821CAB147
:10F96C000022C3F81821D3F818310C4BDA7FFF2A88
:10F97C0007D002F01F010122987F8A40084938B154
:10F98C00CA60002207485A771A72D3E9002110473F
:10F99C008A60F6E7704700BF00B000401C060120EB
:10F9AC000025844024060120F8B5114B114F53F863
:10F9BC002050013053F82060AE4200D8F8BDD5E994
:10F9CC0000342046984780B17CB10B4BE41BE4100B
:10F9DC005C430123094A610952F8210004F01F0419
:10F9EC0003FA04F4044342F821400835E4E700BF6D
:10F9FC00441C01004C030120ABAAAAAA0C04012050
:10FA0C00034A044B02609B1A0348DB1058437047AF
:10FA1C004C0301200C040120ABAAAAAA094BC31A5F
:10FA2C000948DB105843094B420953F822200123A3
:10FA3C0000F01F0003FA00F010420CBF1846002023
:10FA4C00704700BF4C030120ABAAAAAA0C040120EA
:10FA5C00114970B505460E46104C8C4204D10F4C22
:10FA6C00B4420AD1002414E02046FFF7D7FF10B1AE
:10FA7C002368AB420DD01834EFE72046FFF7CEFFDA
:10FA8C0008B91834ECE72168284601F055FB00282A
:10FA9C00F7D1204670BD00BF0C0401204C0301209F
:10FAAC002DE9F74305460F464FF02003EFF311897C
:10FABC0083F31188BFF36F8F00F07AFC01230646A5
:10FACC004FF00000002263F30700254C254B042D5A
:10FADC00A4EB030498BF244BC4F3C90494BF53F89C
:10FAEC002530224B009264F38F102A46204901F0F6
:10FAFC000AFA6FB1FB69C3F308034BB14FF0000076
:10FB0C00012363F3070064F38F101A4901F0FBF92A
:10FB1C004FF000080123304663F3070864F38F1895
:10FB2C0001F0C2FDD0B10278134B002A08BF184671
:10FB3C0001F0FCF9324603461049404601F0E3F966
:10FB4C0039462846FFF716FC89F31188BFF36F8FEF
:10FB5C00304603B0BDE8F043FEF7A0BB0648E7E72C
:10FB6C00041A0100E41901005C1C0100F1240100DD
:10FB7C00072501002F250100FF240100502501005D
:10FB8C0008B50B4D4FF02002EFF3118382F311886F
:10FB9C00BFF36F8F01F0A0FD012104460228D8BFEE
:10FBAC00084601F0A9FD2C62FDF7CCFFEAE700BF87
:10FBBC00400601200248034A0021121A01F002BB40
:10FBCC0028040120A806012008B50648064A074962
:10FBDC00121A01F0CDFABDE80840054A054906485D
:10FBEC0001F0C6BA0000012024040120A825010060
:10FBFC0000000000A825010000000120012208B52A
:10FC0C000B4B02201A70FFF7CFFE0A4A0A490B4829
:10FC1C0000F0D5FF0320FFF7C7FE00F047FCFCF710
:10FC2C0089FF074A137B23F00103137308BD00BF40
:10FC3C00A5060120A62401006825010074250100F9
:10FC4C00A80401202DE98048A7B0FDF747F9344BF3
:10FC5C0003F5006989F3088883F30A880024E023FC
:10FC6C00304D4FF0010B85F82230EC772C766C760A
:10FC7C00AC766B6A2C4E43F4E0236B62FEF7D6FA3B
:10FC8C00FDF75AFF4FF0FF33AB62EB6240F201130A
:10FC9C00264DADF8243006ABAB602046CDE92044B0
:10FCAC00FFF782FE0120FFF77FFEDFF8988000F05F
:10FCBC0007FB1F4B6E624FF480621E490593CDE922
:10FCCC00034B4346CDE901440094304600F0C0FBA1
:10FCDC00737B824623F004033046737301F053FCAC
:10FCEC000F23154FCDE902434FF4A072134B144967
:10FCFC00CDE904B4CDE90044384600F0A9FB7B7B88
:10FD0C00EF6023F004037B7305F118032C75C5F821
:10FD1C000490C5E90633424651463046FDF7F2FEE3
:10FD2C00E80B012000ED00E0A804012040060120B2
:10FD3C009E250100A8060120280401208DFB00004F
:10FD4C00A80A012009FC000070B50E4B0E4CA34212
:10FD5C0001D3002070BDD3E9030141EA000212F087
:10FD6C0003020BD19D685A61AA4201D11C33EEE704
:10FD7C005E6901320E6059610144F5E76FF01500C0
:10FD8C00E8E700BF140401201404012010B5084C4E
:10FD9C0023685BB1FDF7C6FD2368064A1844106161
:10FDAC000021BDE81040184601F0A6BC10BD00BFF4
:10FDBC007806012040060120F8B50D464FF02003CF
:10FDCC00EFF3118483F31188BFF36F8F4FF400416D
:10FDDC0040F2E73600270022E1FB0067094B304672
:10FDEC001A6139464FF47A720023FCF721FA064B5C
:10FDFC001860064B1D60FFF7C9FF84F31188BFF331
:10FE0C006F8FF8BD40060120780601207406012092
:10FE1C0049B9EFF3058030B9054B5A6A9B689A4291
:10FE2C0001D0FDF7B3BD81F31188BFF36F8F70471D
:10FE3C00400601204FF02003EFF3118183F311886A
:10FE4C00BFF36F8F044B9A68D37B013BD37381F361
:10FE5C001188BFF36F8F704740060120094B03F1E7
:10FE6C002802824205D19B688B4202D14B7BDB0678
:10FE7C0006D1D1E9003213605A600023C1E9003386
:10FE8C00704700BF4006012070B5104C064604F1C7
:10FE9C00280001F072FB0546A368597B880644BF15
:10FEAC0041F00801597305B9E5684EB95A7BD20681
:10FEBC0006D1AA6922B9DA897F2A01D9636270BD99
:10FECC00AB4201D0FFF762FF6562F8E74006012004
:10FEDC0010B54FF02003EFF3118483F31188BFF3B7
:10FEEC006F8F084B00209A68D37B0133D373FFF7D5
:10FEFC00CBFF84F31188BFF36F8FBDE8104001F086
:10FF0C0025BB00BF4006012070B4437BDB0627D124
:10FF1C0083692BBB134A02F12801D2E90A348B42C4
:10FF2C0018D0BBB190F90E5093F90E60AE420CDDB7
:10FF3C005A68C0E9003210605860437B63F07F035D
:10FF4C00437370BC0020FFF79FBF9C4202D01B681C
:10FF5C00002BE9D1C0E90014D36A1860D062ECE739
:10FF6C0070BC70474006012010B54FF02003EFF332
:10FF7C00118483F31188BFF36F8F437B590704D42B
:10FF8C0084F31188BFF36F8F10BD23F00403437308
:10FF9C00FFF7BAFF2146BDE810400148FFF738BF14
:10FFAC00A606012070B590F90D300446002B03DA3B
:10FFBC0001461648FFF752FF154A02F12801D2E913
:10FFCC000A308B421CD0DBB194F90E5093F90E60C1
:10FFDC00AE4210DD5968C4E900310C605C60637B93
:10FFEC00906863F07F036373031B58425841BDE86C
:04FFFC007040FFF75B
:020000021000EC
:1000000049BF984202D01B68002BE5D1C4E900101B
:10001000D36A1C60D462E8E768060120400601202C
:1000200070B54FF02003EFF3118483F31188BFF311
:100030006F8F174A174993680D68AB42154606D172
:10004000FFF7AAFE84F31188BFF36F8F70BD0026FF
:100050000E6011490968C1B1D9897F2915D8597B2A
:10006000C90612D10D4993F90E6009688E420CDB66
:100070000B498B4209D01169814203DC1846FFF716
:1000800097FFDDE7091A1161DCE700232B61D9E74F
:100090004006012070060120780601207406012028
:1000A0002804012070B50446183001F005FB4FF01C
:1000B0002003EFF3118683F31188BFF36F8F94F958
:1000C0000D30002B07DA21460E48FFF7CDFE637B8B
:1000D00003F07F0363730C4D637BA86843F0100348
:1000E0006373031B58425841FFF7D4FE86F311880F
:1000F000BFF36F8FAB68A34203D1BDE8704001F03E
:100100002BBA70BD6806012040060120036E2DE960
:10011000F041044603B1984704F1180001F0CCFA0D
:100120004FF02003EFF3118683F31188BFF36F8F35
:10013000637BD80623D1A2690ABB190607D52146DD
:100140001E48FFF791FE637B03F07F0363731C4B34
:100150009868021B50425041FFF79CFE0027637BCA
:1001600004F1300843F008036373256B454500D064
:1001700095B986F31188BFF36F8FBDE8F0819B07B7
:10018000ECD52146A068FFF76FFE637B23F00203E6
:1001900063730023A360E1E705F1180001F08CFA16
:1001A000A8682946FFF760FE6B7BAF6023F002036F
:1001B0006B73EF672846FFF7ADFED6E768060120B0
:1001C0004006012010B590F90D300446002B07DAE7
:1001D00001460848FFF748FE637B03F07F03637323
:1001E000054B9868031B58425841BDE81040FFF783
:1001F00051BE00BF68060120400601202DE9F041F4
:10020000064614461D464FF02003EFF3118783F393
:100210001188BFF36F8F01F0ECF987F31188BFF3FA
:100220006F8F6B1C08BFB4F1FF3F08D022462B46EE
:1002300006F118000349BDE8F04100F0E7B9BDE858
:10024000F08100BFB315010010B50C46064B1146F6
:100250009868064B1860DDE90223FFF7CFFF2046C0
:10026000BDE81040FDF798BB400601207006012054
:10027000F8B5064601F060FA34184FF02003EFF3AA
:10028000118783F31188BFF36F8F0D4D0D4BA86855
:100290001860FFF797FFA8680B493246F31718302C
:1002A00000F0B4F9AA683846537B43F01003537347
:1002B000FDF772FB01F040FA201A20EAE070F8BD69
:1002C0004006012070060120B31501000021044BF7
:1002D000084603F12802C3E90A22FFF773BD00BFF5
:1002E00040060120F8B5234C234BA2689A4229D03E
:1002F0004FF02003EFF3118683F31188BFF36F8F64
:1003000004F12805A1682846FFF7AEFDA26AA3689C
:10031000AA4228D03AB3E06A93F90E1092F90E700F
:100320008F421BDD5168C3E900210B6053605A7B8B
:10033000012062F07F025A73FFF7ACFD86F311884B
:10034000BFF36F8F4FF02003EFF3118083F3118819
:10035000BFF36F8FBDE8F840FDF71EBB824202D0AD
:100360001268002ADAD1E26A1D605A60E26A1360FC
:10037000E362DCE74006012028040120013108BFC8
:10038000B0F1FF3F10B506D10B4B9868FFF78AFE1E
:100390004FF0FF3010BD044648B9FFF7A3FF4FF4FC
:1003A0007A7084FB0034D80B40EA4440F2E7FFF750
:1003B0005FFF0446F3E700BF40060120014B986849
:1003C000704700BF4006012038B504464FF02003B7
:1003D000EFF3118583F31188BFF36F8F01F031F9CB
:1003E00048B10022C26701F0D4F82946BDE8384080
:1003F0000448FFF713BDD4E902329A4218BF013313
:10040000A360F2E7A606012037B514461D464FF05B
:100410002003EFF3118183F31188BFF36F8F83689B
:1004200043B1013B836081F31188BFF36F8F0020DC
:1004300003B030BD54EA050306D181F31188BFF340
:100440006F8F6FF00F00F3E70246CDE900450248D9
:10045000FFF7FAFEECE700BFA6060120F0B500F1B9
:10046000300585B0C0E90C550E9D04460573042582
:1004700045730D9D07328573002522F00702C0E900
:100480001A128E180C9AC573C0E9065505670292B8
:100490000B9A01920A9A00923246FDF71DFB054B1A
:1004A000C4E917559B6803B15B6F3046636705B0BD
:1004B000F0BD00BF400601202DE9F0472A4E2B4D2C
:1004C000B04686B0B54205F1300410D3FFF7B8FC52
:1004D0004FF4004940F2E7360027244CDFF890A0A3
:1004E000444521D306B0BDE8F047FFF7F7BC54F808
:1004F000043C059354F8103C049354F8143C0393C3
:1005000054F8183C029354F81C3C019354F8203CD6
:10051000009354E90A2354E90C01FFF79FFF54F8B4
:10052000303CDD652546CDE7636A5A1C0DD0304668
:10053000394623EAE373C9FB0301B94208BFB0425D
:10054000256804D12846FFF715FD3034C8E74FF47D
:100550007A720023FBF772FE02460B4605F1180083
:10056000514600F053F8F0E7140401201404012070
:10057000B3150100034B1B680BB9FDF7D9B9002077
:10058000704700BF7C06012030B5036868B10A4A95
:100590005268904209D043B1D3E90421D0E904451F
:1005A000121945EB0101C3E90421426813605A6046
:1005B0000023C0E9003330BD4403012038B5114B9E
:1005C0001C689C4208BF0024FFF7D4FFB4B1D4E9F3
:1005D0000423141A63EBE075B4F1004F75F10003C6
:1005E0000CDA002C75F10003204600DA0020064BDF
:1005F0001B6913B19842A8BF184638BD6FF0004080
:10060000F5E700BF44030120400601202DE9F74F24
:100610000191591C08BFB2F1FF3F82466ED0541CB5
:1006200043F100056FF001034FF0FF3BB3EB04080B
:100630006BEB0509B8F1000F79F100030FDBFFF751
:1006400099FF6FF00103344AD2E9001C5B1A6BEB8F
:100650000C021E1B62EB0507341A67EBE075019B69
:10066000CAF808304FF02003EFF3118683F31188A6
:10067000BFF36F8FFFF77EFF012C75F1000321465A
:10068000B8BF01212A46B8BF0022244B0C1842EB08
:10069000E0751A68CAE904459A4201D05F6852B908
:1006A0005A68CAF80030CAF804205A68C2F800A094
:1006B000C3F804A014E0D2E90489DAE9044544450A
:1006C00075EB09011DDAB8EB040069EB0501C2E91D
:1006D00004015168CAE90021C1F800A0C2F804A0D1
:1006E0001A689A4206D0924504D1FFF767FF0021AD
:1006F000FDF7B8F886F31188BFF36F8F03B0BDE83C
:10070000F08FB4EB080065EB0901BA42CAE90401B5
:10071000C6D01268C3E700BF2805012044030120AA
:100720002DE9F74F0446FFF77BFC4FF02003EFF372
:10073000118583F31188BFF36F8F2C4BDFF8B090D6
:100740009846CB46DFF8ACA01C60D8F800C0DAF8B9
:1007500000406646D9E900235445CDE900234FEA1D
:10076000E6770CD05CB1D4E904128C4577EB020338
:100770001BDAB1EB0C0062EB0701C4E904010024B1
:10078000009BC8F80040F218019B47EB0303CBE93C
:100790000023FFF713FF2146FDF764F885F3118866
:1007A000BFF36F8F03B0BDE8F08F0022DDE9006773
:1007B00000237618ACEB010047EBE177C8F80000A6
:1007C000C4E904232046C9E90067FFF7DDFE85F38D
:1007D0001188BFF36F8FA36898474FF02003EFF3A2
:1007E000118583F31188BFF36F8FAEE77C0601207C
:1007F00028050120440301202DE918484FF020036B
:10080000EFF3118483F31188BFF36F8FFDF790F836
:10081000074BD3E9002312EB000B43F1000C5846C1
:10082000614684F31188BFF36F8FBDE8188800BF5D
:100830002805012038B5064C064DAC4201D30020F6
:1008400038BDD4E90112204600F07AFF1434F4E7F1
:100850001404012014040120002070474368183359
:100860000B60012313607047C0681030FFF7ACBD08
:10087000C06810304FF0FF324FF0FF33FFF7C4BDB8
:1008800013B504460DF106012046FBF759FE18B9D1
:10089000BDF806301B06F5D502B010BD10B4836854
:1008A0001C680023A44610BC60472DE9F843D0F82B
:1008B0000C9001291D4604461646D9F820302DD14A
:1008C00017689F4216D07B1ED0F80480042B27D8CF
:1008D000DFE803F0031919261900FFF7C9FFAB2160
:1008E000B8F82E202046FBF711FF2046FFF7BCFF8B
:1008F000C9F82070BDB12046089B32460021A847A8
:100900000020BDE8F883FFF7B3FF98F83030B8F85F
:100910002C20002B14BF7921B921E3E71360E9E70C
:100920006FF02200EDE72846EBE7012303FA01F11F
:10093000C3681B68194283680CBFDB681B691847D2
:1009400038B50D46C46883684FF400721B68984739
:1009500030B9012303FA05F1236823EA0103236078
:1009600038BD60B1436803F00303012B03D0032BB0
:1009700005D103681BB100238360184670476FF0F0
:10098000150070474268034602F00302032A4FF045
:10099000000281600CBF006810465A60704700205A
:1009A00070472DE9F04F002506460F461C464FF0D4
:1009B000FF39A84687B002F1FF3B4FF0000A07E07D
:1009C000BAF1000F0BD1252800F0F0803946B0476E
:1009D0001BF8010F0028F3D107B0BDE8F08F6428A1
:1009E0006CD01AD839280AD831285ED22D2800F0C8
:1009F000E48030284AD0252807D139460BE0582812
:100A000000F0A580632800F0CD8039462520B0474E
:100A100039469BF80000B047CFE7702800F08D8082
:100A20000DD869284AD06C2803D16C2D2AD14C25C9
:100A3000CEE76828E9D1682D24D14825C8E7752874
:100A40003CD01BD87328E0D154F8043B9A46524658
:100A50001AF8010B002840F0A080B8F1030F40F015
:100A6000B280A2EB030AA9EB0A0ABAF1000FA4DDD7
:100A700039462020B0470AF1FF3AF6E7782866D0D9
:100A80007A28C2D1002DC0D10546A1E7B9F1000FE7
:100A90000EDAB8F1000F00F09380A0F13009B8F140
:100AA000000F08BF4FF0020892E7B9F1000FF4DB26
:100AB0000A2303FB0909A9F13009F0E77A2D06D1D1
:100AC000A2465AF8042BD317752825D10FE06C2DB8
:100AD000F6D04C2D05D1073424F0070AFAE802239A
:100AE000F2E7752804F1040A226814D10023B8F152
:100AF000030118BF0121B8F1010F0CBF30202020E5
:100B000001910A21CDE90209009130463946FCF7EE
:100B100063F8544651E7D317002A73F10001E6DA6F
:100B200039462D20CDE90423B047DDE904235242A4
:100B300063EB430309F1FF39D9E739463020B04769
:100B400039467820B0474FF008094FF001089BF86C
:100B50000030702B03D154F8042B00230AE06C2DD5
:100B6000F9D04C2DF7D1073424F007031C465B68FD
:100B700054F8082BB8F1030118BF0121B8F1010F97
:100B80000CBF3020202001911021CDE902090091F5
:100B900030463946FCF720F80FE739460493B04752
:100BA000049B54E7394654F8040B34E75546D046C5
:100BB0004FF0FF394FF0010A0AE74FF0030807E74B
:100BC0004FF0010804E7824602E70FB407B504A915
:100BD00051F8040B0191FCF74FF803B05DF804EBFA
:100BE00004B07047038B13F0070305D10368002B93
:100BF0000CBF002003207047022B05D1438B002B34
:100C000014BF002004207047012B05D10368002B7E
:100C10000CBF002005207047002070472DE9F041EF
:100C20000D4607461946281D90461E46FFF7AAFEA8
:100C3000044638B13346424629463846A446BDE804
:100C4000F0416047BDE8F08110B44FF02004EFF3AD
:100C5000118284F31188BFF36F8F416110BC0121B1
:100C6000FCF718B810B50C4640B139B1081DFFF7B4
:100C700078FE28B9A36833F0030301D06FF01500A4
:100C800010BD38B50C46054658B151B10B6843B19B
:100C90004B6833B11C22002100F09AFA00202C612D
:100CA00038BD6FF01500FBE770B504460D46FFF741
:100CB000D9FF061E31DB4FF02003EFF3118183F3E0
:100CC0001188BFF36F8F4FF6FF76638B208BB34293
:100CD00000F007022ED0022A0ED10133638316469C
:100CE000012381F31188BFF36F8FB3B1002329462D
:100CF0002046FFF793FF10E0830701D0062A0ED1AC
:100D000000232B60636893B9C4E90055164662B9A5
:100D10000A4620460221FBF7BDFF304670BD052A7A
:100D20000CBF6FF022066FF004060023D9E71D60A8
:100D30006560EBE76FF00A06F7E7044608B508467A
:100D400011461A46A047FFF739FBFDF7ADFA836855
:100D500000EBC101B3F5004F2CBF51F8220031F870
:100D60001200704700EBC1018068B0F5004F2CBF46
:100D700041F8223021F81230704708B50122FFF700
:100D8000E6FF400808BD836800EBC101B3F5004FE2
:100D900008D34B681AB143F001034B60704723F04E
:100DA0000103FAE74B881AB143F001034B80704707
:100DB00023F00103FAE753000122FFF7D3BF836852
:100DC000481CB3F5004F2CBF02230123C01AB0FA10
:100DD00080F0C0F11F0070472DE9F04104460D4638
:100DE000FFF7CBFFA3680146B3F5004F01D30128FD
:100DF00035D02046FFF7E3FF04EB800216699EB969
:100E0000012303FA00F0E36829460343E360204628
:100E100015612B460222FFF7A5FF03222946204633
:100E2000BDE8F041FFF79EBF022231462046FFF7A2
:100E30008EFF07460346022229462046FFF792FF0F
:100E40003346032229462046FFF78CFF032239460A
:100E50002B462046FFF786FF02223146DFE7BDE83A
:100E6000F081B2F5802FF8B52CBF082504250023AA
:100E7000551B0022CC1D0D4424F0070425F0070566
:100E80002D1BED0804602946C4E90023C4E9025281
:100E90002046FFF794FF134686001B36471CF608D2
:100EA00004F11001BB4229DB324620460021FFF746
:100EB00082FFAF1B204601220021FFF764FF3A4664
:100EC0003146FFF778FF3346314620460022FFF7D0
:100ED00049FF294620460022FFF76DFF3B46294681
:100EE00020460022FFF73EFF294620460122FFF759
:100EF0004AFF3146BDE8F840FFF76EBF41F8042BCA
:100F00000133CFE77047FEF7A3BAFCF72BBD0020F3
:100F100070470EB403B503AA52F8041B00230192D4
:100F2000FBF7B4FF02B05DF804EB03B0704708B5FF
:100F3000FCF70EF8002008BD704707B5D1E9003274
:100F400001905268012101A89847002003B05DF884
:100F500004FBF8B506460D4614461F4621462846B2
:100F60003A46B047241A0544F8D1F8BD426810B596
:100F7000D2E90023044681680068FFF7EAFF0022F7
:100F800063681A6010BD08B5FCF71EFA002008BDA2
:100F90000C23C268C9B201FB0323186C00F00700E0
:100FA00070474FF02003EFF3118283F31188BFF3F2
:100FB0006F8F036813F0C00301D08B4207D1012368
:100FC0000360002082F31188BFF36F8F70474FF0EA
:100FD000FF30F7E710B54FF02003EFF3118283F3F2
:100FE0001188BFF36F8F036803F00704012C06D14B
:100FF0000160002082F31188BFF36F8F10BD03F0F2
:10100000C0038B4214BF4FF0FF306FF00F00F1E7C9
:101010004FF02003EFF3118283F31188BFF36F8F3A
:10102000036803F0C00343F00203036082F31188F6
:10103000BFF36F8F7047C3681C2010B4CCB204FBA1
:101040000030002110BC10471046FFF7BDB900204A
:10105000FEF748BA0020FEF713BA38B50C24C9B21F
:101060004C430546C06804F1400380211844FFF753
:1010700098FF002804DB69680C44636898470020E7
:1010800038BDF8B50C24C9B24C43C568064604F116
:101090004000802128441746FFF79CFF002808DB0A
:1010A0007B682544AB63BB68EB6373681B59984747
:1010B0000020F8BD6FF0220070477047704710B5F0
:1010C0000FB4FEF7BDFE0FBCF6F792FF0FB4FEF7AC
:1010D00005FF0FBC10BD00210120FCF751BD836E40
:1010E00083F30B88704701460068FCF749BD08B5DB
:1010F000FCF796FDBDE80840FDF7AAB830B54B688F
:1011000085B00C689DF808200D890094498924F069
:101110001F04013B65F30402234461F3471223F0EB
:101120001F0369468DF808200393FDF72BF905B0DE
:1011300030BD40E800F313F4803FD8B208BF6FF031
:10114000150070470138013910F8013F11F8012FDF
:10115000934201D1002BF7D1981A704710B55AB1BC
:101160000139841810F8012B11F8013FA04201D079
:101170009A42F7D0D01A10BD1046FCE7F0B581EACC
:101180000004A50703460BD0013B0A4491421AD143
:10119000F0BD002AFCD011F8014B013A03F8014BD5
:1011A0009C07F6D19508AC001E1F0F19B94205D156
:1011B0006FF00306234406FB0522E5E751F804CB54
:1011C00046F804CFF2E711F8014B03F8014FDDE7D1
:1011D000034670B5C9B29C0710D141EA012444EA24
:1011E0000445940803EB8406B3420DD16FF0030568
:1011F00005FB04241C44A34209D170BD002AFCD085
:1012000003F8011B013AE6E743F8045BECE703F857
:10121000011BF0E74FF0FF307047436800205B6828
:101220001B690B60704743685B68586842400A401E
:1012300042405A6000207047436800205B68996014
:101240007047436800205B68D9607047436800209E
:101250005A685368594051607047C36830B5586840
:1012600058B10024814213D108685CB99C68586069
:10127000A14200D198600020086072B9002030BD02
:101280002846EFE720609868814208BF9C60F2E73B
:1012900005680446002DF3D13AB15A680A6098688F
:1012A00059600028EAD19960E9E76FF01500E6E798
:1012B000012303FA01F1C3681B68194218BF82F0C9
:1012C000010212B18368DB68184783681B69FBE77A
:1012D00038B505680446FDB1AB68EBB11868D8B104
:1012E00051B1197A0122FFF7E3FF23689B68586820
:1012F000BDE8384000F0DCB912B9AA8892040BD4DA
:10130000586800F0D5F9236800229B68197A18689C
:10131000BDE83840FFF7CCBF38BD10B50122002131
:101320000446FFF7D5FFE36823B9201DBDE8104050
:10133000FFF74AB810BD2DE9F843C768012999465F
:10134000054616467B6D26D1D2F80080984510D010
:1013500008F1FF32042A20D8DFE802F00317171F34
:101360001700FDF773FB002304463B6010B9C7F874
:1013700054800024B9F1000F04D0089B3246214666
:101380002846C8472046BDE8F883012BEFD14068C6
:10139000FEF7F8F9EBE71360EBE76FF02204E9E7FB
:1013A00010B5044600220B200121FCF77DFB2046EE
:1013B000BDE81040FDF74ABBC06810B503688B421A
:1013C00006D190F8504034B9FFF7A7FF204610BD72
:1013D0006FF01500FBE76FF00F00F8E70020704793
:1013E00038B504460D4600F09DF8844209D2002C21
:1013F00007DBA84205D32C4484428CBF0020012087
:1014000038BD0020FCE770B50D4619462846164643
:101410001C46FFF7E5FF70B184B1B5F5404F224699
:101420002946304603DABDE87040FFF748BEFFF7B3
:10143000A5FE002070BD6FF01500FBE72046F9E720
:101440000A46C368043393E8030082E803000020DF
:10145000704743681B68D3F88004C3F88004704762
:101460004368C2681B68D3F8100148B10020127DA0
:101470000A70C3F81001D3F8102101221A607047D6
:101480004FF0FF3070472DE9F34143688DF80710A6
:101490001C68C66800F006F998BB64254FF0010887
:1014A00006F10C07D7E8EF3F002B03D1C7E8E28F26
:1014B000002AF7D107D021200021013DFEF75EFF71
:1014C00015F0FF05EED10023C4F82031D4F8203107
:1014D0000DF10703C4F8443501234FF47A75C4F8BD
:1014E0004835A360D4F8203123B9012000F00DF86D
:1014F000013DF7D10123E3600023F36002B0BDE8B2
:10150000F0810123F360DEE7004700F0D1B808B5B1
:101510000520FCF7BBFA20B9BDE808400520FCF720
:1015200091BA08BD4FF4801070474FF48050704757
:101530004FF4807070476FF022007047FFF7BEBD18
:10154000034620B9EFF305820AB9FCF725BA83F305
:101550001188BFF36F8F70474FF02003EFF31180B6
:1015600083F31188BFF36F8FFFF7EABF10B504460E
:1015700001468068FEF778FC637B23F00203637307
:101580000023A36010BD0368984214BF18460020D2
:10159000704710B54FF02003EFF3118483F31188E7
:1015A000BFF36F8FFEF7B6FC84F31188BFF36F8F24
:1015B00010BD70B504464FF02003EFF3118683F39E
:1015C0001188BFF36F8F50F8103CA0F1180513B1CC
:1015D0002846FFF7CBFF14F80B3C284623F01403F2
:1015E00004F80B3CFEF796FC86F31188BFF36F8F6F
:1015F00070BD38B504460D46FEF7E4FD637B43F04D
:10160000020363737DB12B68A5609D4212D08BB13C
:1016100094F90E2093F90E10914205DD5A68C4E941
:10162000003214605C6038BD69688B4202D01B6870
:10163000002BEFD16B68256063606B681C606C6089
:10164000F1E738B54FF02003EFF3118283F31188EF
:10165000BFF36F8FFFF797FF044682F31188BFF344
:101660006F8F88B14FF02003EFF3118583F311885A
:10167000BFF36F8FFFF77AFF85F31188BFF36F8F8A
:1016800004F1180000F018F8204638BD3AB18A423B
:1016900005D3C0E90212C0E90000002070476FF0D6
:1016A00015007047EFF30580003018BF0120704728
:1016B000FBF7E2BB0020704710B54FF02002EFF3BC
:1016C000118482F31188BFF36F8F03683BB1FEF77B
:1016D0005BFF002084F31188BFF36F8F10BD6FF0A4
:1016E0001500F7E710B54FF02003EFF3118483F3F3
:1016F0001188BFF36F8FFEF761FF84F31188BFF38A
:101700006F8F10BD70B504460E464FF02003EFF307
:10171000118583F31188BFF36F8FFEF74FFF012808
:1017200005DDA04203DD31462046FCF79BF885F33A
:101730001188BFF36F8F70BD08B5FFF75DF808BD66
:1017400010B400F10C04C0E9034410BCFFF789BBDE
:021750007047E0
:02175200FFFF97
:0817540018ABFF7F010000004B
:10175C0051CE00000000000055FD0000000000000C
:10176C0035080100000000006DE5000000000000DD
:10177C0051D500004C030120FDF100006403012051
:10178C00DDF100007C03012061D4000000000000AA
:10179C0011D80000940301202F0F0100000000005D
:1017AC00A1E60000AC0301202DEF0000C4030120D2
:1017BC00A1130100DC03012079C70000F403012010
:1017CC00B5F3000000000000870F010000000000CE
:1017DC0000000000D710010000000000D71001002D
:1017EC0000000000D710010000000000D71001001D
:1017FC0000000000D710010065F50000091501007C
:10180C0000000000D710010000000000D7100100FC
:10181C0000000000D710010000000000D7100100EC
:10182C0000000000D710010065F900000915010047
:10183C0000000000D710010000000000D7100100CC
:10184C0000000000D710010000000000D7100100BC
:10185C0000000000D710010000000000D7100100AC
:10186C0000000000D710010000000000D71001009C
:10187C0000000000D710010000000000E5D70000B8
:10188C0000000000D710010000000000D71001007C
:10189C0000000000D710010000000000D71001006C
:1018AC0000000000D710010000000000D71001005C
:1018BC0000000000D710010000000000D71001004C
:1018CC0000000000D710010000000000D71001003C
:1018DC0000000000D710010000000000D71001002C
:1018EC0000000000D710010000000000D71001001C
:1018FC0000000000D710010000000000D71001000C
:10190C0000000000D710010000000000D7100100FB
:10191C0000000000D710010000000000D7100100EB
:10192C0000000000D710010000000000D7100100DB
:10193C0000000000D710010000000000D7100100CB
:10194C0000000000D710010000000000D7100100BB
:10195C0000000000D71001000000000045E9000065
:10196C0000000000D710010000000000D71001009B
:10197C0000000000D710010000000000D71001008B
:10198C0000000000D710010000000000D71001007B
:10199C0000000000D710010000000000D71001006B
:1019AC0000000000D710010000000000D71001005B
:1019BC0000000000D710010000000000D71001004B
:1019CC0000000000D710010000000000D71001003B
:0819DC0000000000D71001001B
:1019E4005E1E0100030000003F240100030000000C
:1019F400991D0100030000004F22010003000000B4
:101A04009B250100030000002A1E010003000000C2
:101A1400951D010003000000351D010003000000B6
:101A2400F6230100030000001E2401000100000051
:101A3400141B01003C0501200E1E010001000000E2
:0C1A4400FFFFFFFFFFFFFFFFFFFFFFFFA2
:101A50000400000006000000FFFFFFFFFFFFFFFF84
:101A600001000000000000000F0000000E00000058
:101A7000DEE61E28EAAC45B8025B0000DEE61E2862
:101A80004CBBCE8F025B0000000000000000000095
:101A90000338FDD87047000001000000FF0000007F
:101AA000281D010000EA3206000100005400012058
:101AB0002E1D010002000000004000000001000097
:101AC0000000400000100000001000010200230090
